:0600000000F0A5EF05F081
:1006000000C020202020202020200080202020202A
:100610002020202000333228010C06000000FFFFBC
:100620005EEC06F00B0E6B6E060E6C6E1FEC05F0AA
:10063000010E6B6E060E6C6E1FEC05F094689368ED
:10064000000E956EFFFF000E81B8010E686E000E61
:1006500081BA010E676E000E81B6010E666E000E45
:1006600081B4010E656E000E81B2010E646E000E43
:1006700081B0010E636E000E82B6010E626E000E36
:1006800082B4010E616E000E82B2010E606E000E29
:1006900082B0010E5F6E6650080DF3CF75F0F4CF97
:1006A00076F06550040DF3507526F45076226450B0
:1006B000020DF3507526F45076226350010DF3506D
:1006C00075244B6EF45076204C6E6250080DF3CFBB
:1006D00075F0F4CF76F06150040DF3507526F450A8
:1006E00076226050020DF3507526F45076225F504A
:1006F000010DF3507524496EF45076204A6E68500F
:10070000D8A406D06750D8A403D022EC04F09AD71E
:10071000FFFF6850D8A406D06704D8A403D0A0EC8B
:1007200003F090D7FFFF6804D8A406D06750D8A480
:1007300003D0D0EC05F086D7FFFFFBEC05F082D7A5
:10074000FFFF49C073F04AC074F0731E741E734AF1
:10075000742A4B507324696E4C5074206A6E69C0C1
:1007600073F06AC074F0731E741E734A742A73C0E7
:1007700059F074C05AF069C06BF06AC06CF0000E9A
:100780006E6E0A0E6D6E8BEC04F06BC05BF06CC08D
:100790005CF069C06BF06AC06CF0000E6E6E0A0E01
:1007A0006D6E63EC05F06BC047F06CC048F059C04B
:1007B0006BF05AC06CF0000E6E6E0A0E6D6E8BEC14
:1007C00004F06BC057F06CC058F059C06BF05AC0C1
:1007D0006CF0000E6E6E0A0E6D6E63EC05F06BC071
:1007E00055F06CC056F0300E5726000E5822300ED1
:1007F0005526000E5622300E5B26000E5C22300E6F
:100800004726000E48226AAE07D02D0E226E57C032
:1008100023F055C024F007D0FFFF2B0E226E5BC0E3
:1008200023F047C024F0FFFF290E6B6E000E6C6EA4
:100830001FEC05F01F0E6B6E000E6C6E1FEC05F0CA
:100840001200FFFFFFFF4BC06BF04CC06CF049C0C3
:100850006DF04AC06EF074EC06F06BC04FF06CC0E7
:1008600050F04FC06BF050C06CF0000E6E6E640E16
:100870006D6E8BEC04F06BC04DF06CC04EF04DC053
:100880006BF04EC06CF0000E6E6E640E6D6E74EC0C
:1008900006F06B504F5E6C50505A4FC06BF050C01A
:1008A0006CF0000E6E6E0A0E6D6E8BEC04F06BC079
:1008B0005BF06CC05CF04FC06BF050C06CF0000E91
:1008C0006E6E0A0E6D6E63EC05F06BC047F06CC087
:1008D00048F0300E4D26000E4E22300E5B26000EE4
:1008E0005C22300E4726000E48222B0E036E4DC0B0
:1008F00004F05BC005F047C006F09E0E6B6E000E64
:100900006C6E1FEC05F0010E6B6E000E6C6E1FEC32
:1009100005F01200FFFFFFFF000E706E6EAE06D0F6
:100920006D6C6E1ED8B06E2A010E706EFFFF6CAE3D
:1009300006D06B6C6C1ED8B06C2A010E701AFFFFCB
:10094000000E726E000E716E6D506E10D8B420D015
:10095000010E6F6E05D0FFFFD8906D366E366F2A90
:10096000FFFF6EAEF8D7FFFFD890713672366D502C
:100970006B5C6E506C58D8A005D06D506B5E6E509D
:100980006C5A7180FFFFD8906E326D326F2EEBD7AC
:10099000FFFF7050D8B404D0716C721ED8B0722AA8
:1009A000FFFF71C06BF072C06CF01200FFFFFFFF21
:1009B000010E6C6EF40E6B6EA80EFFFFE82EFDD7D5
:1009C0006B2EFBD76C2EF9D700D08490150E6D6E70
:1009D000060E6E6E26D0FFFF6DC0F6FF6EC0F7FFED
:1009E0000800FFFFF5CF6FF084826FC083FF849211
:1009F000190E6B6E5D0EFFFFE82EFDD76B2EFBD739
:100A00006F3AF00E6F1684826FC083FF8492190EC6
:100A10006B6E5D0EFFFFE82EFDD76B2EFBD76D4A88
:100A20006E2AFFFF6DC0F6FF6EC0F7FF0800FFFFE4
:100A3000F5500009D8B41200FFFFCDD7FFFFFFFF2C
:100A4000849029D0FFFF6BC0F6FF6CC0F7FFF86AF7
:100A5000050EF76404D00800FFFFF55005D0F6CF6F
:100A6000E9FFF7CFEAFFEF506E6E84826EC083FF1E
:100A700084926E3AF00E6E1684826EC083FF84926A
:100A8000190E6D6E5D0EFFFFE82EFDD76D2EFBD7A4
:100A900084806B4A6C2AFFFF6BC0F6FF6CC0F7FFC7
:100AA000F86A050EF76404D00800FFFFF55005D082
:100AB000F6CFE9FFF7CFEAFFEF500009D8B41200F4
:100AC000FFFFC0D7FFFFFFFF000E706E6CAE06D0B9
:100AD0006B6C6C1ED8B06C2A010E706EFFFF6EAE90
:100AE00004D06D6C6E1ED8B06E2AFFFF6D506E1074
:100AF000D8B41CD0010E6F6E05D0FFFFD8906D36B4
:100B00006E366F2AFFFF6EAEF8D7FFFF6D506B5C3D
:100B10006E506C58D8A004D06D506B5E6E506C5AFD
:100B2000FFFFD8906E326D326F2EEFD7FFFF7050FF
:100B3000D8B404D06B6C6C1ED8B06C2AFFFF6BC0AD
:100B40006BF06CC06CF01200FFFF8A0EF66E0C0E9C
:100B5000F76E000EF86E00EE80F010EE32F0090035
:100B6000F5CFEEFFE550E150FAE1440EF66E0C0EC3
:100B7000F76E000EF86E00EE01F010EE46F0090080
:100B8000F5CFEEFFE550E150FAE100EE47F0240E1C
:100B9000EE6AE806FDE1000EF86E00010FEF03F0CB
:100BA000FFFF66506214666E65506114656E645096
:100BB0006014646E63505F14636E300E6626300EF0
:100BC0006526300E6426300E632666C035F065C09B
:100BD00036F064C037F063C038F0150E6B6E000E4F
:100BE0006C6E1FEC05F0330E6B6E000E6C6E1FEC1E
:100BF00005F01200FFFFFFFF010E661A010E651AD5
:100C0000010E641A010E631A300E6626300E652638
:100C1000300E6426300E632666C00DF065C00EF0FF
:100C200064C00FF063C010F0A80E6B6E000E6C6E07
:100C30001FEC05F00B0E6B6E000E6C6E1FEC05F0DA
:100C40001200FFFFC0202020202020202000C020F4
:100C50002020202020202000802042414E4443209C
:100C60002000C020202020202020200080202042A2
:100C70002D4320202000C0202020202020202000E4
:100C8000802020422B4320202000C0202020202034
:100C900020202000C0202020202020202000802094
:100CA0002020202020202000802020422A432020B5
:100CB000200080204E4F542842292000FFFF8E0E36
:100CC000C16EE10E926EDC0E936ED00E946E0F0E1E
:100CD000956E000E966E100E806E809680948092B7
:100CE000D7EC04F01200FFFFFFFF6B506D02F3CF53
:100CF0006FF0F4CF70F06B506E02F35070266C50B2
:100D00006D02F35070266FC06BF070C06CF0120073
:040D1000FFFFFFFFE3
:020000040020DA
:08000000FFFFFFFFFFFFFFFF00
:020000040030CA
:0E000000FF220D0EFF0181FF0FC00FE00F4029
:00000001FF
