:0600000000F01AEF04F00D
:1006000000C020202020202020200080202020202A
:100610002020202000333228010C06000000FFFFBC
:1006200020EE01F010EE49F0090EDBCFE3FFE80603
:10063000FCE2490E436E000E446E9FEC03F0030E85
:100640003E6E390E436E000E446E9FEC03F00A0EB0
:10065000486E850E476E9F0EFFFFE82EFDD7472E92
:10066000FBD7482EF9D700D00B0E436E060E446E12
:100670009FEC03F0030E346E2F0E436E000E446E9B
:100680009FEC03F00A0E486E850E476E9F0EFFFF2B
:10069000E82EFDD7472EFBD7482EF9D700D0010E04
:1006A000436E060E446E9FEC03F01200FFFFFFFF47
:1006B000010E446EF40E436EA80EFFFFE82EFDD728
:1006C000432EFBD7442EF9D700D08490150E456EEB
:1006D000060E466E26D0FFFF45C0F6FF46C0F7FF68
:1006E0000800FFFFF5CF47F0848247C083FF849264
:1006F000190E436E5D0EFFFFE82EFDD7432EFBD78C
:10070000473AF00E4716848247C083FF8492190E41
:10071000436E5D0EFFFFE82EFDD7432EFBD7454A03
:10072000462AFFFF45C0F6FF46C0F7FF0800FFFF5F
:10073000F5500009D8B41200FFFFCDD7FFFFFFFF2F
:10074000849029D0FFFF43C0F6FF44C0F7FFF86A4A
:10075000050EF76404D00800FFFFF55005D0F6CF72
:10076000E9FFF7CFEAFFEF50466E848246C083FF71
:100770008492463AF00E4616848246C083FF8492E5
:10078000190E456E5D0EFFFFE82EFDD7452EFBD7F7
:100790008480434A442AFFFF43C0F6FF44C0F7FF6A
:1007A000F86A050EF76404D00800FFFFF55005D085
:1007B000F6CFE9FFF7CFEAFFEF500009D8B41200F7
:1007C000FFFFC0D7FFFF5881819F909F819F9000BE
:1007D000588080808D968080800080497420576F7B
:1007E000726B7300C073696E28F42A7429C0E02A02
:1007F000F6E22A59C020202020202020200080203E
:100800002020202020202000FFFF8E0EC16EE10E50
:10081000926EDC0E936ED00E946E0F0E956E000EDF
:10082000966E100E806E80968094809257EC03F046
:100830001200FFFFC60EF66E070EF76E000EF86E82
:1008400000EE01F010EE42F00900F5CFEEFFE550AA
:10085000E150FAE1000EF86E00012FEF04F0FFFF07
:1008600004EC04F00B0E436E060E446E9FEC03F096
:10087000010E436E060E446E9FEC03F0FFFF0FEC7B
:0608800003F0FCD7FFFFAE
:020000040020DA
:08000000FFFFFFFFFFFFFFFF00
:020000040030CA
:0E000000FF220D0EFF0181FF0FC00FE00F4029
:00000001FF
