:04000000F6EF00F027
:060008004B82CDED09F072
:100018004B80D8CFB9F0E8CFBAF0E0CFBBF0FACF39
:10002800BCF0FBCFBDF0E9CFBEF0EACFBFF0E1CF27
:10003800C0F0E2CFC1F0D9CFC2F0DACFC3F0F3CF2E
:10004800C4F0F4CFC5F0F6CFC6F0F7CFC7F0F8CFBD
:10005800C8F0F5CFC9F04BC0CAF04CC0CBF04DC0CA
:10006800CCF04EC0CDF0F2A48ED0818A410E0001B2
:10007800B46FEE0EE82EFED7B42FFCD700F0C28284
:10008800410E0001B46FEE0EE82EFED7B42FFCD758
:1000980000F09E8CB4EC07F0D8C0B4F0D9C0B5F02D
:1000A800000E0001B5BFFF0EB66FB76FB451D05D3B
:1000B800B551D159B651D259D351800AB86FB751F9
:1000C800800AB859D8A05FD0D405D511D8A45BD080
:1000D800B0EC0EF0000E01013B6F010E3A6F818A01
:1000E800B60E0001966F7D0E976FF6EC03F0DA0EF0
:1000F8000001966F7D0E976FF6EC03F0D59E000E0B
:100108000001D06F000ED16F000ED26F000ED36FBA
:10011800F5EC0AF0200E0001966F7D0E976FF6EC55
:1001280003F09EAAFED7AECFD6F00001D76BD60556
:10013800D711D8A421D0000ECF6F000ECE6F13D0E8
:100148009EAAFED7AECFD8F00001D96BFA0E966FF3
:100158007F0E976FD8C098F0D9C099F0F6EC03F0ED
:100168000001CE4BCF2BCFBFEBD7CF510BE1020E07
:10017800CE5DD8B007D0E4D78F0E966F7D0E976FFF
:10018800F6EC03F0D58E9E9CF294819ACDC04EF089
:10019800CCC04DF0CBC04CF0CAC04BF0C9C0F5FF85
:1001A800C8C0F8FFC7C0F7FFC6C0F6FFC5C0F4FF58
:1001B800C4C0F3FFC3C0DAFFC2C0D9FFC1C0E2FFA9
:1001C800C0C0E1FFBFC0EAFFBEC0E9FFBDC0FBFF82
:1001D800BCC0FAFFBBC0E0FFBAC0E8FFB9C0D8FF97
:1001E8004B9010009DEF0BF0AC8AAB8E020E936E15
:1001F800000E956E819481968198819A948E949C34
:100208001F0EAF6EAC98AC94AB9CAB8EAB88F29ED5
:10021800F29CD08E9E9C9D8C9F9CF08CF096F090CA
:10022800C29AC298C296C294C292C280C19AC19818
:10023800C186C184C182C190C08EC08AC09AC09A4A
:10024800C084C092C090D59ED59CD59AD596D584A9
:10025800D592D580F28AF294F194F28EF28C670EE0
:10026800D76E6A0ED66EA1EC0EF0B50E0101166FB0
:100278007F0E176F1AEC03F0000E0101356F000EA8
:10028800346F35BF06D0355120E1040E345DD8B047
:100298001CD09EAAFED7430E01013425D96E010E4B
:1002A8003521DA6EAECFDFFFFD0E166F7F0E176FAA
:1002B8001AEC03F00101344B352B35BFEAD7355121
:1002C80004E1040E345DD8A0E4D7000E376F000EA9
:1002D800366F37BF06D0375113E1040E365DD8B0FC
:1002E8000FD0430E3625D96E010E3721DA6EDF5056
:1002F800006F3E5187EC0EF00101364B372BE9D7E2
:10030800A40E166F7F0E176F1AEC03F08186D58E38
:10031800010138513911D8A407D0C40E166F7F0EC9
:10032800176F1AEC03F007D0D30E0101166F7F0E7A
:10033800176F1AEC03F00001D451D511D8A408D0D6
:10034800410E0101166F7F0E176F1AEC03F007D0EC
:100358006B0E0101166F7F0E176F1AEC03F0810EFA
:100368000101166F7A0E176FD8C018F1D9C019F1AC
:10037800D0C01AF1D1C01BF1D2C01CF1D3C01DF1FD
:100388001AEC03F081A81FD01A0E0101336F5E0E1C
:10039800326F6E0EE82EFED7322FFCD7332FFAD7E6
:1003A80000F067EC0EF02AC1D6F02BC1D7F0FA0E98
:1003B8000101166F7F0E176FD6C018F1D7C019F15B
:1003C8001AEC03F0E1D79EAAFED7AECFD6F0000113
:1003D800D76B01013A053B11D8A431D0B50E166F81
:1003E8007E0E176F1AEC03F0000E01013B6F000E32
:1003F8003A6FA1EC0EF08AD74CEC08F089D771EC73
:1004080006F086D73AEC02F083D7A7EC05F080D740
:10041800000E0101166F7F0E176F1AEC03F00D0E18
:100428000101336FAF0E326FB60EE82EFED7322FB2
:10043800FCD7332FFAD700F0A1EC0EF069D7D6C05D
:1004480032F1D7C033F101013351000AD8A4E0D703
:100458003251310AD8B4D0D7030AD8B4D0D7010A58
:10046800D8B4D0D7070AD8B4D0D7D2D7A1EC0EF0D9
:10047800010138513911D8A407D0C40E166F7F0E68
:10048800176F1AEC03F007D0D30E0101166F7F0E19
:10049800176F1AEC03F00001D451D511D8A408D075
:1004A800410E0101166F7F0E176F1AEC03F007D08B
:1004B8006B0E0101166F7F0E176F1AEC03F0220EF8
:1004C8000101166F7B0E176FD8C018F1D9C019F14A
:1004D800D0C01AF1D1C01BF1D2C01CF1D3C01DF19C
:1004E8001AEC03F09EAAFED7AECFD6F00001D76B68
:1004F80001013A053B11D8A485D0B50E166F7E0EC2
:10050800176F1AEC03F0000E01013B6F000E3A6FF3
:10051800A1EC0EF012000001D451D511D8A40CD0D2
:10052800000ED56F010ED46FCE0E0101166F7E0E30
:10053800176F1AEC03F00CD0000E0001D56F000EF7
:10054800D46F680E0101166F7E0E176F1AEC03F058
:100558000D0E01012B6FAF0E2A6FB60EE82EFED7D7
:100568002A2FFCD72B2FFAD700F0A1EC0EF080D75A
:100578004D0E0101166F7E0E176F1AEC03F0000E78
:1005880001012D6F000E2C6F2DBF04D02D5101E1FC
:1005980019D06ED79EAAFED7AECFD8F00001D96B7E
:1005A800FA0E0101166F7F0E176FD8C018F1D9C067
:1005B80019F11AEC03F001012C4B2D2B2DBFEAD7B2
:1005C8002D5105E1020E2C5DD8B052D7E3D750D794
:1005D800A1EC0EF01200000E0101166F7F0E176FCE
:1005E8001AEC03F01A0E01012B6F5E0E2A6F6E0EC5
:1005F800E82EFED72A2FFCD72B2FFAD700F0A1EC34
:100608000EF036D7D6C02AF1D7C02BF101012B51F5
:10061800000AD8A4E0D72A51310AD8B47CD7030AF3
:10062800D8B4A6D7010AD8B4D3D7D5D7180E0101A4
:10063800226F010E236FC8D0250E2919D8B404D013
:100648002951CCEC0EF0C0D0000E0101246F01D06E
:10065800248916C1F6FF17C1F7FF164B172B0800A0
:10066800F5CF29F12951000AD8B41200640AD8B488
:1006780007D00D0AD8B404D0050AD8B4E9D7A4D055
:1006880024A90ED022C1D9FF23C1DAFFDECF25F17C
:10069800DECF26F1DECF27F1DECF28F1040E0ED013
:1006A80022C1D9FF23C1DAFFDECF25F1DDCF26F144
:1006B800000E26BFFF0E276F286F020E2227000E9E
:1006C800232328AF0AD0030E2413281F271F261F11
:1006D800256D000E262327232823010E296F0A0ED5
:1006E8002919D8B418D02951040D590EF324F66EDF
:1006F8007A0EF420F76E0900F550255D0900F550D3
:1007080026590900F55027590900F5502859D8A04D
:1007180002D0292BE4D724C11EF1030E1E17D8B42A
:1007280003D02D0ECCEC0EF001012951206F216B66
:1007380020BF210740D020C11EF121C11FF1D89050
:100748001E371F37D8901E371F37590E1E25F66ED5
:100758007A0E1F21F76E0900F5CF04F10900F5CFD5
:1007680005F10900F5CF06F10A00F5CF07F125C11B
:1007780000F126C101F127C102F128C103F1E1EC22
:100788000BF000C10DF101C10EF102C10FF103C15F
:1007980010F10A0E0101116F000E126F000E136F97
:1007A800000E146FA0EC0DF001010D51300F296FF0
:1007B8002951CCEC0EF001012007D8A021072029EF
:1007C800BAE12129D8A4B7D716C1F6FF17C1F7FF98
:1007D8000101164B172B0800F5CF29F12951D8B480
:1007E80012002AD7980E00019E6F000E9F6FC8D086
:1007F800250EA519D8B404D0A551D3EC0EF0C0D05D
:10080800000E0001A06F01D0A08996C0F6FF97C026
:10081800F7FF964B972B0800F5CFA5F0A551000AD6
:10082800D8B41200640AD8B407D00D0AD8B404D0DA
:10083800050AD8B4E9D7A4D0A0A90ED09EC0D9FF84
:100848009FC0DAFFDECFA1F0DECFA2F0DECFA3F0AB
:10085800DECFA4F0040E0ED09EC0D9FF9FC0DAFFF1
:10086800DECFA1F0DDCFA2F0000EA2BFFF0EA36F76
:10087800A46F020E9E27000E9F23A4AF0AD0030E7A
:10088800A013A41FA31FA21FA16D000EA223A323C0
:10089800A423010EA56F0A0EA519D8B418D0A55126
:1008A800040D590EF324F66E7A0EF420F76E090043
:1008B800F550A15D0900F550A2590900F550A3595A
:1008C8000900F550A459D8A002D0A52BE4D7A0C0A0
:1008D8009AF0030E9A17D8B403D02D0ED3EC0EF06D
:1008E8000001A5519C6F9D6B9CBF9D0740D09CC08B
:1008F8009AF09DC09BF0D8909A379B37D8909A373A
:100908009B37590E9A25F66E7A0E9B21F76E0900D1
:10091800F5CF84F00900F5CF85F00900F5CF86F012
:100928000A00F5CF87F0A1C080F0A2C081F0A3C073
:1009380082F0A4C083F023EC0CF080C08DF081C05D
:100948008EF082C08FF083C090F00A0E0001916F84
:10095800000E926F000E936F000E946FD4EC0DF0A2
:1009680000018D51300FA56FA551D3EC0EF0000199
:100978009C07D8A09D079C29BAE19D29D8A4B7D780
:1009880096C0F6FF97C0F7FF0001964B972B08001B
:10099800F5CFA5F0A551D8B412002AD7190E1D6EAF
:1009A800000E1E6EC3D0250E2418D8B404D02450CF
:1009B800DAEC0EF0BBD0000E1F6E01D01F8817C0F6
:1009C800F6FF18C0F7FF174A182A0800F5CF24F0D9
:1009D8002450000AD8B41200640AD8B407D00D0A0B
:1009E800D8B404D0050AD8B4E9D7A0D01FA80ED02F
:1009F8001DC0D9FF1EC0DAFFDECF20F0DECF21F008
:100A0800DECF22F0DECF23F0040E0ED01DC0D9FFBA
:100A18001EC0DAFFDECF20F0DDCF21F0000E21BEB0
:100A2800FF0E226E236E020E1D26000E1E2223AE1E
:100A38000AD0030E1F12231E221E211E206C000E38
:100A4800212222222322010E246E0A0E2418D8B451
:100A580018D02450040D590EF324F66E7A0EF420A3
:100A6800F76E0900F550205C0900F550215809007F
:100A7800F55022580900F5502358D8A002D0242A4E
:100A8800E4D71FC019F0030E1916D8B403D02D0EE1
:100A9800DAEC0EF024501B6E1C6A1BBE1C063ED0FE
:100AA8001BC019F01CC01AF0D89019361A36D89005
:100AB80019361A36590E1924F66E7A0E1A20F76E60
:100AC8000900F5CF05F00900F5CF06F00900F5CFCC
:100AD80007F00A00F5CF08F020C001F021C002F0AD
:100AE80022C003F023C004F065EC0CF001C00EF046
:100AF80002C00FF003C010F004C011F00A0E126E0D
:100B0800000E136E000E146E000E156E08EC0EF03B
:100B18000E50300F246E2450DAEC0EF01B06D8A0CD
:100B28001C061B28BDE11C28D8A4BAD717C0F6FF9D
:100B380018C0F7FF174A182A0800F5CF24F02450E8
:100B4800D8B4120030D7A1EC0EF0A1EC0EF00101E0
:100B580038513911D8A407D0C40E166F7F0E176FFD
:100B68001AEC03F007D0D30E0101166F7F0E176F32
:100B78001AEC03F00001D451D511D8A408D0410EC5
:100B88000101166F7F0E176F1AEC03F007D06B0E7A
:100B98000101166F7F0E176F1AEC03F0B90E0101F1
:100BA800166F7B0E176FD8C018F1D9C019F1D0C0D5
:100BB8001AF1D1C01BF1D2C01CF1D3C01DF11AEC3F
:100BC80003F09EAAFED7AECFD6F00001D76B010185
:100BD8003A053B11D8A46AD0B50E166F7E0E176F72
:100BE8001AEC03F0000E01013B6F000E3A6FA1EC06
:100BF8000EF01200820E0101166F7E0E176F1AECAE
:100C080003F081880D0E01012B6FAF0E2A6FB60E0F
:100C1800E82EFED72A2FFCD72B2FFAD72BD0310E50
:100C28000101166F7E0E176F1AEC03F09568819814
:100C38000D0E01012B6FAF0E2A6FB60EE82EFED7F0
:100C48002A2FFCD72B2FFAD715D0E10E0101166FEA
:100C58007F0E176F1AEC03F0956881880D0E01015D
:100C68002B6FAF0E2A6FB60EE82EFED72A2FFCD7B1
:100C78002B2FFAD700F069D7A1EC0EF01200000E66
:100C88000101166F7F0E176F1AEC03F00D0E0101AC
:100C98002B6FAF0E2A6FB60EE82EFED72A2FFCD781
:100CA8002B2FFAD700F0A1EC0EF04FD7D6C02AF1BF
:100CB800D7C02BF101012B51000AD8A4E0D72A5143
:100CC800310AD8B497D7030AD8B4A9D7010AD8B437
:100CD800BCD7070AD8B4D0D7D2D7A1EC0EF00101FF
:100CE80038513911D8A407D0C40E166F7F0E176F6C
:100CF8001AEC03F007D0D30E0101166F7F0E176FA1
:100D08001AEC03F00001D451D511D8A408D0410E33
:100D18000101166F7F0E176F1AEC03F007D06B0EE8
:100D28000101166F7F0E176F1AEC03F03E0E0101DA
:100D3800166F7C0E176FD8C018F1D9C019F1D0C042
:100D48001AF1D1C01BF1D2C01CF1D3C01DF11AECAD
:100D580003F09EAAFED7AECFD6F00001D76B0101F3
:100D68003A053B11D8A452D0B50E166F7E0E176FF8
:100D78001AEC03F0000E01013B6F000E3A6FA1EC74
:100D88000EF01200F0B60CD0F086920E166F7F0EA1
:100D9800176F1AEC03F0000E0101396F010E0BD02A
:100DA800F0967F0E166F7F0E176F1AEC03F0000E89
:100DB8000101396F000E386F0D0E01012B6FAF0E58
:100DC8002A6FB60EE82EFED72A2FFCD72B2FFAD77C
:100DD80000F0A1EC0EF083D7A1EC0EF01200000E8B
:100DE8000101166F7F0E176F1AEC03F00D0E01014B
:100DF8002B6FAF0E2A6FB60EE82EFED72A2FFCD720
:100E08002B2FFAD700F0A1EC0EF069D7D6C02AF143
:100E1800D7C02BF101012B51000AD8A4E0D72A51E1
:100E2800310AD8B4AFD7030AD8B4D6D7D8D7A1ECEB
:100E38000EF0E70E0101166F7E0E176F1AEC03F025
:100E4800000E01012D6F000E2C6F2DBF06D02D5105
:100E580020E1040E2C5DD8B01CD09EAAFED73F0E10
:100E680001012C25D96E010E2D21DA6EAECFDFFFE0
:100E7800FD0E166F7F0E176F1AEC03F001012C4B55
:100E88002D2B2DBFEAD72D5104E1040E2C5DD8A0DF
:100E9800E4D73F0E006F010E016F430E026F010E83
:100EA800036F000E056F040E046FA6EC0CF000C172
:100EB8003CF101C13DF101013C513D11D8A439D0AB
:100EC800A1EC0EF0560E0101166F7F0E176F1AEC8B
:100ED80003F0000E01012F6F000E2E6F2FBF06D0FA
:100EE8002F5120E1040E2E5DD8B01CD09EAAFED74B
:100EF800430E01012E25D96E010E2F21DA6EAECFD9
:100F0800DFFFFD0E166F7F0E176F1AEC03F001015D
:100F18002E4B2F2B2FBFEAD72F5104E1040E2E5D45
:100F2800D8A0E4D79C0E166F7E0E176F1AEC03F04C
:100F38001200590E0101166F7D0E176F1AEC03F09F
:100F48001A0E01012B6F5E0E2A6F6E0EE82EFED769
:100F58002A2FFCD72B2FFAD700F0A1EC0EF01200A5
:100F6800C350416E426A436A446AC4503D6E3E6A49
:100F78003F6A406A3DC0B1F03EC0B2F03FC0B3F036
:100F88000001B06BB0C03DF0B1C03EF0B2C03FF060
:100F9800B3C040F03D504124396E3E5042203A6E75
:100FA8003F5043203B6E405044203C6E39C080F097
:100FB8003AC081F03BC082F03CC083F0F40E846FED
:100FC800010E856F000E866F000E876F3BEC0EF0EA
:100FD80080C0D0F081C0D1F082C0D2F083C0D3F0FD
:100FE800D0C080F0D1C081F0D2C082F0D3C083F0ED
:100FF800FF0E0001846F030E856F000E866F000ED2
:10100800876F36EC0AF080C0D0F081C0D1F082C082
:10101800D2F083C0D3F0CE0E0001D025D06FFF0EE2
:10102800D121D16FFF0ED221D26FFF0ED321D36F02
:10103800660E956FE60E966F3F0E976FD0C088F0DC
:10104800D1C089F0D2C08AF0D3C08BF026EC0DF065
:1010580088C092F089C093F08AC094F052EC09F0ED
:1010680092C0A1F093C0A2F094C0A3F0D6EC08F00F
:10107800A1C0D0F0A2C0D1F0A3C0D2F0A4C0D3F0D8
:10108800200E0001D027000ED123D223D323120033
:10109800A1EC0EF0010138513911D8A407D0C40EC3
:1010A800166F7F0E176F1AEC03F007D0D30E0101ED
:1010B800166F7F0E176F1AEC03F00001D451D5118B
:1010C800D8A408D0410E0101166F7F0E176F1AECD5
:1010D80003F007D06B0E0101166F7F0E176F1AEC25
:1010E80003F0B30E0101166F7C0E176FD8C018F10C
:1010F800D9C019F1D0C01AF1D1C01BF1D2C01CF16E
:10110800D3C01DF11AEC03F09EAAFED7AECFD6F0DD
:101118000001D76B01013A053B11D8A432D0B50EB6
:10112800166F7E0E176F1AEC03F0000E01013B6F6D
:10113800000E3A6FA1EC0EF012002C0E0101166F92
:101148007F0E176F1AEC03F01BEC07F0A3D7A1EC86
:101158000EF01200000E0101166F7F0E176F1AECC9
:1011680003F00D0E0101316FAF0E306FB60EE82E91
:10117800FED7302FFCD7312FFAD700F0A1EC0EF0B4
:1011880089D7D6C030F1D7C031F101013151000AF9
:10119800D8A4E0D73051310AD8B4CFD7030AD8B48D
:1011A800D6D7D8D7A3C0A5F00001A66BA76BA235E8
:1011B800A53701E3A681A551AF6FAF51D8A409D0D7
:1011C800000EA16F000EA26F000EA36F000EA46F99
:1011D8001200170EA56FA1C0A6F0A2C0A7F0A3C069
:1011E800A8F0A529A96F04D0D890A833A733A633AF
:1011F800A92FFAD70001A651AA6FA28FFF0EA11737
:10120800FF0EA217000EA317A151AB6FA251AC6F2E
:10121800A351AD6FAE6B8E0EAF5FAFAF16D0AF51AF
:10122800800A8F0FD8B009D0000EA16F000EA26FF0
:10123800000EA36F000EA46F1200D890AE33AD332A
:10124800AC33AB33AF3FF9D715D0170EAF650FD01E
:10125800000EA16F000EA26F000EA36F000EA46F08
:101268001200D890AB37AC37AD37AE37AF07AF51B8
:10127800D8A4F7D7AA51D8B408D0AE1FAD1FAC1F59
:10128800AB6D000EAC23AD23AE23ABC0A1F0ACC058
:10129800A2F0ADC0A3F0AEC0A4F0120094C098F0C4
:1012A8000001996B9A6B9335983701E399819851AE
:1012B8009B6F9B51D8A407D0000E926F000E936FBE
:1012C800000E946F120097C098F0996B9A6B963540
:1012D800983701E399819851A06FA051D8A407D0FD
:1012E800000E926F000E936F000E946F1200A051C3
:1012F8007B0F9B2794C0A0F09751A01B800EA017CE
:10130800938F968FFF0E9517FF0E9617000E97175F
:10131800000E9C6F000E9D6F000E9E6F070E9F6F54
:1013280092A106D095519C2796519D2397519E23B3
:10133800D890943393339233D8909537963797371C
:101348009F2FEED7090E9F6F92A106D095519C272B
:1013580096519D2397519E23D8909433933392337B
:10136800D8909E339D339C339F2FEED79CC080F03E
:101378009DC081F09EC082F09BC083F0A0C084F025
:101388009DEC0AF080C092F081C093F082C094F086
:1013980012000600FACF27F0FBCF28F0E9CF29F09A
:1013A800EACF2AF0E1CF2BF0E2CF2CF0D9CF2DF005
:1013B800DACF2EF0F3CF2FF0F4CF30F0F6CF31F0B4
:1013C800F7CF32F0F8CF33F0F5CF34F04BC035F02B
:1013D8004CC036F04DC037F04EC038F0BFEC0EF0C0
:1013E800F90E176E7D0E186ED2EC04F0DA0E176E39
:1013F8007D0E186ED2EC04F08184000E01013B6F63
:10140800010E3A6F4CEC0BF08F0E176E7D0E186EB6
:10141800D2EC04F0F090819438C04EF037C04DF013
:1014280036C04CF035C04BF034C0F5FF33C0F8FF80
:1014380032C0F7FF31C0F6FF30C0F4FF2FC0F3FF12
:101448002EC0DAFF2DC0D9FF2CC0E2FF2BC0E1FF70
:101458002AC0EAFF29C0E9FF28C0FBFF27C0FAFF1E
:101468004B921100000E0001896F87AF0AD0871FC9
:10147800861F851F846D000E852386238723010E12
:10148800896F83AF0AD0831F821F811F806D000E72
:10149800812382238323010E891B000E8A6F000E8D
:1014A8008B6F000E8C6F000E8D6F84518511861125
:1014B8008711D8B42AD0010E886F06D0D890843707
:1014C800853786378737882B87AFF8D7D8908A37FC
:1014D8008B378C378D378451805D85518159865182
:1014E800825987518359D8A009D08451805F85518A
:1014F800815B8651825B8751835B8A81D890873371
:10150800863385338433882FE1D78951D8B408D0FE
:101518008D1F8C1F8B1F8A6D000E8B238C238D23B0
:101528008AC080F08BC081F08CC082F08DC083F0BF
:10153800120000018351D8B405D080518111821165
:10154800D8A40CD0000E806F000E816F000E826F41
:101558001200832BD890823381338033000E80159C
:10156800856F000E8115866FFE0E8215876F855177
:1015780086118711D8B40CD0ECD7832B010E8027A5
:10158800000E8123000E8223D8908233813380336A
:10159800000E8015856F000E8115866FFF0E82156F
:1015A800876F855186118711D8B406D0E6D783078F
:1015B800D89080378137823781BF03D0020E83618C
:1015C800F6D783A1819FD8908333835182138451A6
:1015D800D8A4828F80C080F081C081F082C082F060
:1015E8001200B90E0001966F7F0E976FF6EC03F0AC
:1015F800000E0001A76F000EA66FA7BF06D0A75167
:1016080020E1040EA65DD8B01CD09EAAFED73F0EDE
:101618000001A625D96E010EA721DA6EAECFDFFF35
:10162800FD0E966F7F0E976FF6EC03F00001A64B48
:10163800A72BA7BFEAD7A75104E1040EA65DD8A03F
:10164800E4D73F0E806F010E816F430E826F010E4B
:10165800836F000E856F040E846FE6EC0CF080C07B
:101668003CF181C03DF101013C513D11D8A408D0A5
:10167800170E0001966F7F0E976FF6EC03F01200BD
:10168800150E0001966F7E0E976FF6EC03F0A9D742
:10169800B90E176E7F0E186ED2EC04F0000E266E8F
:1016A800000E256E26BE06D026501EE1040E255CCF
:1016B800D8B01AD09EAAFED73F0E2524D96E010EA7
:1016C8002620DA6EAECFDFFFFD0E176E7F0E186E86
:1016D800D2EC04F0254A262A26BEECD7265004E18F
:1016E800040E255CD8A0E6D73F0E016E010E026EEF
:1016F800430E036E010E046E000E066E040E056E98
:1017080063EC0DF001C03CF102C03DF101013C5118
:101718003D11D8A407D0170E176E7F0E186ED2ECA5
:1017280004F01200150E176E7E0E186ED2EC04F03F
:10173800AFD7C00EF66E1D0EF76E000EF86E01EEF6
:1017480043F010EE04F00900F5CFEEFFE550E1504C
:10175800FAE1C70EF66E1D0EF76E000EF86E090060
:10176800F5CFD8F00900F5CFD9F0C40EF66E1D0EEE
:10177800F76E000EF86E0900F5CF48F00900F5CFB6
:1017880049F00900F5CF4AF001EE38F00B0EEE6A89
:10179800E806FDE100EED0F0080EEE6AE806FDE18D
:1017A80000EE39F00F0EEE6AE806FDE14B904B9221
:1017B800000EF86E0001F8EF00F0000E0101086F4E
:1017C800000E096F000E0A6F000E0B6F0451051111
:1017D80006110711D8B42AD0010E0C6F06D0D89084
:1017E80004370537063707370C2B07AFF8D7D890DB
:1017F800083709370A370B370451005D055101597D
:101808000651025907510359D8A009D00451005F65
:101818000551015B0651025B0751035B0881D890B3
:1018280007330633053304330C2FE1D708C100F121
:1018380009C101F10AC102F10BC103F11200000E46
:101848000001886F000E896F000E8A6F000E8B6F83
:101858008451851186118711D8B42AD0010E8C6F56
:1018680006D0D89084378537863787378C2B87AF53
:10187800F8D7D890883789378A378B378451805D75
:10188800855181598651825987518359D8A009D0E9
:101898008451805F8551815B8651825B8751835B70
:1018A8008881D89087338633853384338C2FE1D76A
:1018B80088C080F089C081F08AC082F08BC083F034
:1018C8001200000E096E000E0A6E000E0B6E000E5E
:1018D8000C6E0550061007100810D8B42AD0010E57
:1018E8000D6E06D0D89005360636073608360D2A0E
:1018F80008AEF8D7D89009360A360B360C3605509C
:10190800015C065002580750035808500458D8A0E4
:1019180009D00550015E0650025A0750035A085074
:10192800045A0980D89008320732063205320D2E43
:10193800E1D709C001F00AC002F00BC003F00CC0E7
:1019480004F0120031D000C1D9FF01C1DAFFDF5025
:10195800D8B40CD002C1D9FF03C1DAFF00C1E1FF3E
:1019680001C1E2FFDE50E618D8B419D002C1D9FF90
:1019780003C1DAFFDF500101066F076B061F071F5F
:10198800064B072B00C1D9FF01C1DAFFDF50086FF2
:1019980008510625006F000E0721016F1200010192
:1019A800004B012B024B032B01010407D8A00507AC
:1019B8000429C9E10529D8A4C6D7000E016F000E75
:1019C800006F120031D080C0D9FF81C0DAFFDF502C
:1019D800D8B40CD082C0D9FF83C0DAFF80C0E1FF41
:1019E80081C0E2FFDE50E618D8B419D082C0D9FF12
:1019F80083C0DAFFDF500001866F876B861F871F61
:101A0800864B872B80C0D9FF81C0DAFFDF50886FF3
:101A180088518625806F000E8721816F1200000192
:101A2800804B812B824B832B00018407D8A085072C
:101A38008429C9E18529D8A4C6D7000E816F000E74
:101A4800806F1200000E0001916F8E0E906F8BAFA9
:101A580011D08B1F8A1F891F886D000E89238A2346
:101A68008B23010E916F06D0D8908B338A3389333C
:101A78008833902B000E88158C6F000E89158D6F9A
:101A8800000E8A158E6FFF0E8B158F6F8C518D117E
:101A98008E118F11D8A4E8D788C080F089C081F052
:101AA8008AC082F090C083F091C084F09DEC0AF067
:101AB80080C088F081C089F082C08AF012002FD0DF
:101AC80001C0D9FF02C0DAFFDF50D8B40CD003C080
:101AD800D9FF04C0DAFF01C0E1FF02C0E2FFDE5017
:101AE800E618D8B418D003C0D9FF04C0DAFFDF5015
:101AF800076E086A071E081E074A082A01C0D9FF90
:101B080002C0DAFFDF50096E09500724016E000E8B
:101B18000820026E1200014A022A034A042A050616
:101B2800D8A006060528CCE10628D8A4C9D7000EF7
:101B3800026E000E016E12000101115112111311F3
:101B48001411D8B424D0010E156F06D0D8901137CF
:101B5800123713371437152B14AFF8D711510D5D01
:101B680012510E5913510F5914511059D8A008D0B9
:101B780011510D5F12510E5B13510F5B1451105B25
:101B8800D8901433133312331133152FE7D70DC1FF
:101B98000DF10EC10EF10FC10FF110C110F11200BD
:101BA80000019151921193119411D8B424D0010ECF
:101BB800956F06D0D8909137923793379437952BF5
:101BC80094AFF8D791518D5D92518E5993518F5999
:101BD80094519059D8A008D091518D5F92518E5B45
:101BE80093518F5B9451905BD89094339333923395
:101BF8009133952FE7D78DC08DF08EC08EF08FC0B2
:101C08008FF090C090F0120012501310141015109D
:101C1800D8B424D0010E166E06D0D89012361336DA
:101C280014361536162A15AEF8D712500E5C135016
:101C38000F581450105815501158D8A008D01250E9
:101C48000E5E13500F5A1450105A1550115AD8904E
:101C58001532143213321232162EE7D70EC00EF098
:101C68000FC00FF010C010F011C011F01200000EDC
:101C78000001886F000E896F000E8A6F000E8B6F4F
:101C880080A108D0845188278551892386518A23C9
:101C980087518B23D8908437853786378737D890F4
:101CA80083338233813380338051811182118311D0
:101CB800D8A4E6D788C080F089C081F08AC082F0B5
:101CC8008BC083F0120081A812009590959295948C
:101CD80095969588958A958C958E83808392839422
:101CE800839683A883BA02D083AC8350F60E010191
:101CF800166F7F0E176F1AEC03F0000E01012B6FA1
:101D0800310E2A6F12000101026F02C1A9FF00C142
:101D1800A8FFA69EA69CA684F29E550EA76EAA0EA4
:101D2800A76EA682C30E0101016FCD0EE82EFED765
:101D3800012FFCD7F28EA6941200F10E0101166F46
:101D48007F0E176F1AEC03F0EA0E0101166F7F0E73
:101D5800176F1AEC03F01200F10E0001966F7F0E58
:101D6800976FF6EC03F0EA0E0001966F7F0E976FFF
:101D7800F6EC03F01200F10E176E7F0E186ED2EC1F
:101D880004F0EA0E176E7F0E186ED2EC04F0120003
:101D98000101006F9EA8FED700C1ADFF120000012F
:101DA800806F9EA8FED780C0ADFF1200016E9EA86E
:101DB800FED701C0ADFF120031323334302010504D
:011DC800001A
:107A580000010000000A00000064000000E80300C4
:107A68000010270000A086010040420F0080969871
:107A78000000E1F50500CA9A3B54656D70657261B6
:107A880074757265205468726573686F6C643A2007
:107A980025640A0D43757272656E742054656D70A5
:107AA800205B465D3A20256C640A0D0A0D416C6125
:107AB800726D2053797374656D0A0D2D2D2D2D2D42
:107AC8002D2D2D2D2D2D2D2D2D2D2D2D0A0D312921
:107AD80050617373776F72640A0D322950495220CE
:107AE80053656E736F720A0D332954656D70205398
:107AF800656E736F720A0D3429496E707574204D66
:107B08006574686F640A0D2D2D2D2D2D2D2D2D2DAD
:107B18002D2D2D2D2D2D2D0A0D0054656D7065729E
:107B28006174757265205468726573686F6C643A25
:107B38002025640A0D43757272656E742054656D54
:107B480070205B465D3A20256C640A0D0A0D546569
:107B58006D70657261747572652053656E736F72AE
:107B6800204F5054494F4E530A0D312920456E611C
:107B7800626C652F44697361626C6520416C617247
:107B88006D0A0D32292054656D70657261747572C5
:107B980065205468726573686F6C640A0D33292018
:107BA80052657475726E20746F204D656E750A0D7E
:107BB8000054656D706572617475726520546872E1
:107BC8006573686F6C643A2025640A0D4375727298
:107BD800656E742054656D70205B465D3A20256C97
:107BE800640A0D0A0D494E505554204F5054494FC0
:107BF8004E533A0A0D312920557365204B6579702B
:107C080061640A0D322920557365204B6579626FCE
:107C18006172640A0D33292055736520424F544818
:107C28000A0D34292052657475726E20746F204DC8
:107C3800656E750A0D0054656D70657261747572B4
:107C480065205468726573686F6C643A2025640A0D
:107C58000D43757272656E742054656D70205B46B5
:107C68005D3A20256C640A0D0A0D5049522053656F
:107C78006E736F72204F5054494F4E530A0D31297D
:107C880020456E61626C652F44697361626C652082
:107C9800416C61726D0A0D32292052657475726EDD
:107CA80020746F204D656E750A0D0054656D706502
:107CB800726174757265205468726573686F6C645C
:107CC8003A2025640A0D43757272656E74205465F6
:107CD8006D70205B465D3A20256C640A0D0A0D50D4
:107CE800415353574F5244204F5054494F4E530A13
:107CF8000D31294368616E67652050617373776F32
:107D080072640A0D32292052657475726E20746F80
:107D1800204D656E750A0D000A0D446F20796F7548
:107D28002077616E7420746F206368616E676520C8
:107D38007468652074656D70207468726573686F07
:107D48006C643F0A0D31295965730A0D32294E6F4B
:107D5800000A0D50617373776F726420496E766103
:107D68006C69642E20476F696E67206261636B20BF
:107D7800746F2050617373776F7264204D656E75F0
:107D88002E2E2E2E0A0D000A0D5072657373204197
:107D98006E7920427574746F6E20746F20726574EA
:107DA80075726E20746F204D656E750A0D000A0D90
:107DB8000A0D0A0D54454D50205448524553484F1A
:107DC8004C442045584345454445440A0D0A0D0A8C
:107DD8000D000A0D454E5445522050415353574FFC
:107DE800524420544F20434F4E54494E55450A0D96
:107DF800000A0D0A0D0A0D414C41524D20545249BA
:107E08004747455245440A0D0A0D0A0D000A0D78E8
:107E1800787878787878494E56414C49447878781B
:107E2800787878780A0D0A0D000A0D5573696E671F
:107E3800204B6579626F61726420617320496E70AE
:107E480075740A0D00456E746572206E657720742E
:107E5800656D70207468726573686F6C640A0D00D4
:107E68000A0D54656D706572617475726520416C98
:107E780061726D204F46460A0D000A0D5573696EF2
:107E880067204B657970616420617320496E707555
:107E9800740A0D000A0D0A0D50617373776F7264CE
:107EA800204368616E6765640A0D0A0D000A0D5269
:107EB800657475726E696E6720746F204D656E7596
:107EC8002E2E2E0A0D000A0D54656D7065726174B0
:107ED80075726520416C61726D204F4E0A0D004528
:107EE8006E7465722043757272656E74205061738A
:107EF80073776F72643A20000A4552524F522049F4
:107F08004E56414C494420494E5055540A0D000ADA
:107F18000D50415353574F52442056414C49440A3F
:107F28000D0A0D004368616E6765642050617373C4
:107F3800776F72640A0D0A0D0054656D70205365E1
:107F48006E736F72206973204F46460A0D00456EA6
:107F5800746572204E65772050617373776F726411
:107F68003A200054656D702053656E736F722069F6
:107F780073204F4E0A0D00416C61726D2044697385
:107F880061626C65640A0A0D0D00416C61726D20B6
:107F9800456E61626C65640A0A0D0D000A0D506138
:107FA8007373776F7264205345540A0D0053455418
:107FB8002050415353574F52443A0900416C617263
:107FC8006D206973204F46460A0D00416C61726D41
:107FD800206973204F4E0A0D000A0D424F54480A7B
:107FE8000D001B5B303B3048001B5B324A004F4E94
:087FF80045002564002A000089
:020000040020DA
:08000000FFFFFFFFFFFFFFFF00
:020000040030CA
:0E000000FF02191EFF8181FF0FC00FE00F40AD
:00000001FF
