:0400000012EF02F009
:060008004F82A6ED13F08B
:100018004F80D8CFB9F0E8CFBAF0E0CFBBF0FACF35
:10002800BCF0FBCFBDF0E9CFBEF0EACFBFF0E1CF27
:10003800C0F0E2CFC1F0D9CFC2F0DACFC3F0F3CF2E
:10004800C4F0F4CFC5F0F6CFC6F0F7CFC7F0F8CFBD
:10005800C8F0F5CFC9F04FC0CAF050C0CBF051C0BE
:10006800CCF052C0CDF0F2A4AAD1818A410E000191
:10007800B46FEE0EE82EFED7B42FFCD700F0C28284
:10008800410E0001B46FEE0EE82EFED7B42FFCD758
:1000980000F09EBC0FEC13F0E5C080F00001816B0E
:1000A8004CEC18F00001B46FB4514A6E4B6AE05141
:1000B8000A0DE151F324486E000EF420496E48C041
:1000C800B4F049C0B5F0000EB5BFFF0EB66FB76FFC
:1000D800B451445CB5514558B65146584750800A0A
:1000E800B86FB751800AB859D8A069D14A044B10E3
:1000F800D8A465D127EC18F0000E0101576F010E46
:10010800566F818A370E0001966F7C0E976FE0C09C
:1001180098F0996BE1C09AF09B6BDCEC0CF0AA0E9E
:100128000001966F7D0E976FDCEC0CF0D59E05EC08
:1001380011F0C60E0001966F7B0E976FDCEC0CF089
:1001480081A816D090EC0EF080C0E2F081C0E3F0F8
:100158008198070E0001B56F580EB46F590EE82E3E
:10016800FED7B42FFCD7B52FFAD700D0818806D098
:100178009EAAFED7AECFE2F00001E36B310E00017C
:10018800E219E311D8A413D1070E0001B56F580E78
:10019800B46F590EE82EFED7B42FFCD7B52FFAD777
:1001A80000D0470E0001966F7D0E976FDCEC0CF0C7
:1001B800300E0001E46F81A876D0000ECF6F000EDC
:1001C800CE6FCFBF08D0CF5105E1020ECE5DD8B0BB
:1001D800D3D001D0D1D0DE0ECE25D96E000ECF21DE
:1001E800DA6E90EC0EF000018051DF6EDE0ECE2547
:1001F800D96E000ECF21DA6E300EDF5EDE0ECE2510
:10020800D96E000ECF21DA6E090EDF6416D027EC06
:1002180018F0230E0001966F7D0E976FDCEC0CF042
:100228001A0E0001B56F5E0EB46F6E0EE82EFED783
:10023800B42FFCD7B52FFAD773D0DE0E0001CE2528
:10024800D96E000ECF21DA6EDF50806FE451FEECDC
:1002580017F00001E42BFA0E966F7F0E976FDE0EF3
:10026800CE25D96E000ECF21DA6EDF50B46FB451AF
:10027800986F996BDCEC0CF081980D0E0001B56F4E
:10028800AF0EB46FB60EE82EFED7B42FFCD7B52F3D
:10029800FAD700F081880001CE4BCF2BCFBF9BD778
:1002A800CF516AE192D7000ED16F000ED06FD1BF47
:1002B80006D0D15161E1020ED05DD8B05DD09EAAC2
:1002C800FED7DE0E0001D025D96E000ED121DA6EE0
:1002D800AECFDFFFDE0ED025D96E000ED121DA6E4B
:1002E800300EDF5EDE0ED025D96E000ED121DA6E1B
:1002F800090EDF6417D027EC18F0630E0001966F23
:100308007C0E976FDCEC0CF01A0E0001B56F5E0ED8
:10031800B46F6E0EE82EFED7B42FFCD7B52FFAD7E0
:1003280000F050D0FA0E0001966F7F0E976FDE0E28
:10033800D025D96E000ED121DA6EDF50B46FB451DA
:10034800986F996BDCEC0CF0DE0E0001D025D96EAD
:10035800000ED121DA6EDF50806FE451FEEC17F009
:100368000001E42BD04BD12BD1BFA9D7D15104E147
:10037800020ED05DD8A0A3D7DE510A0DF3CFDEF070
:10038800DE51DF25486E496A4936E70E966F7F0EC3
:10039800976F48C098F049C099F0DCEC0CF0B10EAA
:1003A8000001966F7C0E976FDCEC0CF007D0B10E55
:1003B8000001966F7C0E976FDCEC0CF0D58E9E9C3E
:1003C800F294819ACDC052F0CCC051F0CBC050F01D
:1003D800CAC04FF0C9C0F5FFC8C0F8FFC7C0F7FFD3
:1003E800C6C0F6FFC5C0F4FFC4C0F3FFC3C0DAFF40
:1003F800C2C0D9FFC1C0E2FFC0C0E1FFBFC0EAFF71
:10040800BEC0E9FFBDC0FBFFBCC0FAFFBBC0E0FF38
:10041800BAC0E8FFB9C0D8FF4F901000E9EF16F056
:1004280018EC18F05EC100F10101016B43EC18F003
:1004380001012C6F2C51546F556BE5C000F1016B15
:1004480043EC18F001012C6F2C514A6E4B6A5CC1C9
:1004580000F1016B43EC18F001012C6F2C51506F27
:10046800516B300E0001E46F000E01012F6F000E7A
:100478002E6F2FBF06D02F5116E1020E2E5DD8B079
:1004880012D0E00E2E25D96E000E2F21DA6EE4C0B0
:1004980000F1016B43EC18F0DF6E0001E42B010161
:1004A8002E4B2F2BE6D754055511D8B407D0410E43
:1004B800166F7F0E176F00EC0CF007D0680E010165
:1004C800166F7F0E176F00EC0CF04A044B10D8B46F
:1004D80008D03C0E0101166F7F0E176F00EC0CF070
:1004E80007D0630E0101166F7F0E176F00EC0CF03A
:1004F800010150055111D8A407D0BF0E166F7F0E09
:10050800176F00EC0CF014D0020E010150195111B4
:10051800D8A407D0C90E166F7D0E176F00EC0CF02B
:1005280007D09B0E0101166F7F0E176F00EC0CF0C1
:10053800C00E0101166F790E176FE0C018F1196B24
:10054800E1C01AF11B6B44C01CF145C01DF146C047
:100558001EF147C01FF100EC0CF081A816D0B8ECD2
:100568000DF000C1E2F001C1E3F08198070E01012E
:100578002D6F580E2C6F590EE82EFED72C2FFCD756
:100588002D2FFAD700D0818806D09EAAFED7AECFED
:10059800E2F00001E36B010156055711D8A487D199
:1005A800870E166F7E0E176F00EC0CF0000E01011F
:1005B800576F000E566F18EC18F01200E5C000F1E6
:1005C8000101016B43EC18F001012C6F2C514A6EAC
:1005D8004B6A4A044B10D8B40ED0A00E166F7E0E8C
:1005E800176F00EC0CF0010E0101006F0001E551DE
:1005F800E4EC17F00ED03A0E0101166F7E0E176F5D
:1006080000EC0CF0000E0101006F0001E551E4EC74
:1006180017F00D0E01012D6FAF0E2C6FB60EE82EE0
:10062800FED72C2FFCD72D2FFAD700F018EC18F096
:10063800F9D6070E01012D6F580E2C6F590EE82EB2
:10064800FED72C2FFCD72D2FFAD700D0470E01014B
:10065800166F7D0E176F00EC0CF0300E0001E46F82
:1006680081A87AD0000E0101316F000E306F31BFC2
:1006780008D0315105E1020E305DD8B0D9D001D093
:10068800D7D0DE0E3025D96E000E3121DA6EB8ECE7
:100698000DF001010051DF6EDE0E3025D96E000E1F
:1006A8003121DA6E300EDF5EDE0E3025D96E000E97
:1006B8003121DA6E090EDF6417D018EC18F0230E1A
:1006C8000101166F7D0E176F00EC0CF01A0E010178
:1006D8002D6F5E0E2C6F6E0EE82EFED72C2FFCD7DA
:1006E8002D2FFAD700F01200FA0E0101166F7F0EB7
:1006F800176FDE0E3025D96E000E3121DA6EDF500D
:100708002C6F2C51186F196B00EC0CF0DE0E0101E8
:100718003025D96E000E3121DA6EDF50006F0001EE
:10072800E451E4EC17F00001E42B81980D0E01016F
:100738002D6FAF0E2C6FB60EE82EFED72C2FFCD7E0
:100748002D2FFAD700F081880101304B312B31BFB2
:1007580098D731516DE18FD7000E0101336F000E2C
:10076800326F33BF06D0335163E1020E325DD8B029
:100778005FD09EAAFED7DE0E01013225D96E000E8B
:100788003321DA6EAECFDFFFDE0E3225D96E000ED2
:100798003321DA6E300EDF5EDE0E3225D96E000EA2
:1007A8003321DA6E090EDF6417D018EC18F0230E27
:1007B8000101166F7D0E176F00EC0CF01A0E010187
:1007C8002D6F5E0E2C6F6E0EE82EFED72C2FFCD7E9
:1007D8002D2FFAD700F01200FA0E0101166F7F0EC6
:1007E800176FDE0E3225D96E000E3321DA6EDF5018
:1007F8002C6F2C51186F196B00EC0CF0DE0E0101F8
:100808003225D96E000E3321DA6EDF50006F0001F9
:10081800E451E4EC17F00001E42B0101324B332BD7
:1008280033BFA7D7335104E1020E325DD8A0A1D758
:100838000001DE510A0DF3CFDEF0DE51DF25486EF0
:10084800496A4936D80E0101166F7C0E176F48C0E9
:1008580018F149C019F100EC0CF0330E01012D6FAD
:10086800BB0E2C6FDF0EE82EFED72C2FFCD72D2FBA
:10087800FAD700D018EC18F0D5D518EC18F01200FB
:10088800D20E0101166F7E0E176F00EC0CF01A0ED7
:1008980001012D6F5E0E2C6F6E0EE82EFED72C2FE9
:1008A800FCD72D2FFAD700F018EC18F0BBD5E2C012
:1008B8002CF1E3C02DF101012D51000AD8A4E0D795
:1008C8002C51310AD8B47AD6030AD8B4B2D6010A60
:1008D800D8B4D3D7D5D7AC8AAB8E020E936E819499
:1008E80081968198819A948E949C1F0EAF6EAC98D5
:1008F800AC94AB9CAB8EAB88F29EF29CD08E9E9C47
:100908009D8C9F9CF08CF096F090C29AC298C296EB
:10091800C294C292C280C19AC198C186C184C18260
:10092800C190C08EC08AC09AC09AC084C092C0903C
:10093800D59ED59CD59AD596D584D592D580F28A60
:10094800F294F194F28EF28C670ED76E6A0ED66E20
:1009580018EC18F05CC100F10101016B43EC18F0D0
:1009680001013E6F3E51506F516B5DC100F1016B4B
:1009780043EC18F001013E6F3E51526F536B500526
:100988005111D8B405D0020E50195111D8A402D073
:10099800818801D0819852055311D8A451D05005AF
:1009A8005111D8A409D0890E166F7F0E176F00EC6D
:1009B8000CF0BBEC11F018D0020E010150195111C6
:1009C800D8A409D08B0E166F7D0E176F00EC0CF0B3
:1009D800BBEC11F009D0280E0101166F7F0E176FBE
:1009E80000EC0CF0BBEC11F0300E0001E46F000ECF
:1009F8000101416F000E406F41BF06D0415116E121
:100A0800020E405DD8B012D0E00E4025D96E000E1F
:100A18004121DA6EE4C000F1016B43EC18F0DF6E9F
:100A28000001E42B0101404B412BE6D70001E051C6
:100A38000A0DE151F324486E000EF420496E9BD054
:100A4800CF0E0101166F7F0E176F00EC0CF0000E31
:100A58000101476F000E466F47BF06D0475148E176
:100A6800040E465DD8B044D09EAAFED7480E0101B8
:100A78004625D96E010E4721DA6EAECFDFFFFD0E97
:100A8800166F7F0E176F00EC0CF0480E010146251B
:100A9800D96E010E4721DA6E2F0EDF6409D0480E99
:100AA8004625D96E010E4721DA6E390EDF6415D05E
:100AB800FE0E166F7C0E176F00EC0CF01A0E01017B
:100AC8003F6F5E0E3E6F6E0EE82EFED73E2FFCD7B0
:100AD8003F2FFAD700F012EF02F00101464B472BE7
:100AE80047BFC2D7475104E1040E465DD8A0BCD722
:100AF800000E436F000E426F43BF06D0435114E10E
:100B0800040E425DD8B010D0480E4225D96E010EB1
:100B18004321DA6EDF50006F5A51E4EC17F00101FF
:100B28005A2B424B432BE8D7500E166F7F0E176F88
:100B380000EC0CF0010E0101006F5D51E4EC17F0C0
:100B4800070E0101006F0001E451E4EC17F0050EF7
:100B58000101006F0001E429E4EC17F0000E010127
:100B6800006F5E51E4EC17F0000E0101006F000108
:100B7800E551E4EC17F08186D58E5EC100F10101E4
:100B8800016B43EC18F001013E6F3E51546F556BF9
:100B9800E5C000F1016B43EC18F001013E6F3E51D6
:100BA8004A6E4B6A5CC100F1016B43EC18F001011D
:100BB8003E6F3E51506F516B300E0001E46F000ED6
:100BC8000101456F000E446F45BF06D0455116E13F
:100BD800020E445DD8B012D0E00E4425D96E000E46
:100BE8004521DA6EE4C000F1016B43EC18F0DF6ECA
:100BF8000001E42B0101444B452BE6D75405551160
:100C0800D8B407D0410E166F7F0E176F00EC0CF0AA
:100C180008D0680E0101166F7F0E176F00EC0CF0FC
:100C2800F0864A044B10D8B408D03C0E0101166F68
:100C38007F0E176F00EC0CF007D0630E0101166FE2
:100C48007F0E176F00EC0CF0010150055111D8A46C
:100C580007D0BF0E166F7F0E176F00EC0CF014D084
:100C6800020E010150195111D8A407D0C90E166FF0
:100C78007D0E176F00EC0CF007D09B0E0101166F6C
:100C88007F0E176F00EC0CF01D0E0101166F790E28
:100C9800176FE0C018F1196BE1C01AF11B6B44C063
:100CA8001CF145C01DF146C01EF147C01FF100EC04
:100CB8000CF081A816D0B8EC0DF000C1E2F001C12B
:100CC800E3F08198070E01013F6F580E3E6F590EF1
:100CD800E82EFED73E2FFCD73F2FFAD700D08188C9
:100CE80006D09EAAFED7AECFE2F00001E36B010169
:100CF80056055711D8A431D0870E166F7E0E176F80
:100D080000EC0CF0000E0101576F000E566F18EC46
:100D180018F031D7FDEC0AF030D7D7EC09F02DD711
:100D280014EC02F02AD780EC08F027D7D20E010184
:100D3800166F7E0E176F00EC0CF00D0E01013F6F61
:100D4800AF0E3E6FB60EE82EFED73E2FFCD73F2FD4
:100D5800FAD700F018EC18F010D7E2C03EF1E3C063
:100D68003FF101013F51000AD8A4E0D73E51310AB2
:100D7800D8B4D0D7030AD8B4D0D7010AD8B4D0D7BA
:100D8800070AD8B4D0D7D2D718EC18F0070E01014B
:100D98002D6F580E2C6F590EE82EFED72C2FFCD72E
:100DA8002D2FFAD700D0B90E0101166F7E0E176FDE
:100DB80000EC0CF081A831D0000E01012F6F000E5D
:100DC8002E6F2FBF06D02F5151E1040E2E5DD8B0E3
:100DD8004DD04C0E2E25D96E010E2F21DA6EB8ECAF
:100DE8000DF001010051DF6EFD0E166F7F0E176FBB
:100DF80000EC0CF081980D0E01012D6FAF0E2C6FD9
:100E0800B60EE82EFED72C2FFCD72D2FFAD700F0E0
:100E1800818801012E4B2F2BD4D7000E0101316F91
:100E2800000E306F31BF06D0315120E1040E305D25
:100E3800D8B01CD09EAAFED74C0E01013025D96E21
:100E4800010E3121DA6EAECFDFFFFD0E166F7F0E79
:100E5800176F00EC0CF00101304B312B31BFEAD792
:100E6800315104E1040E305DD8A0E4D7000E5A6F6A
:100E7800000E336F000E326F33BF06D0335122E1BC
:100E8800040E325DD8B01ED05AC100F1016B43EC9C
:100E980018F001015B6F5A2B4C0E3225D96E010EEA
:100EA8003321DA6E5B51DE18D8B405D0000E596FC5
:100EB800010E586F07D0000E596F000E586F324B55
:100EC800332BDAD758515911D8A4FFD018EC18F0A1
:100ED800070E01012D6F580E2C6F590EE82EFED704
:100EE8002C2FFCD72D2FFAD700D0130E0101166F27
:100EF8007F0E176F00EC0CF081A868D0000E01017E
:100F0800376F000E366F37BF08D0375105E1040E32
:100F1800365DD8B0B5D001D0B3D0480E3625D96EDD
:100F2800010E3721DA6EB8EC0DF001010051DF6EC9
:100F3800FD0E166F7F0E176F00EC0CF081980D0EEA
:100F480001012D6FAF0E2C6FB60EE82EFED72C2F99
:100F5800FCD72D2FFAD700F08188480E01013625DD
:100F6800D96E010E3721DA6E2F0EDF6409D0480ED4
:100F78003625D96E010E3721DA6E390EDF641ED0A0
:100F880018EC18F0FE0E0101166F7C0E176F00ECBE
:100F98000CF06B0E0101166F7D0E176F00EC0CF054
:100FA8001A0E01012D6F5E0E2C6F6E0EE82EFED705
:100FB8002C2FFCD72D2FFAD700F012000101364B49
:100FC800372B37BFAAD737515BE1A1D7000E0101F4
:100FD800396F000E386F39BF06D0395151E1040E10
:100FE800385DD8B04DD09EAAFED7480E01013825ED
:100FF800D96E010E3921DA6EAECFDFFFFD0E166F06
:101008007F0E176F00EC0CF0480E01013825D96EE1
:10101800010E3921DA6E2F0EDF6409D0480E38250B
:10102800D96E010E3921DA6E390EDF641ED018EC44
:1010380018F0FE0E0101166F7C0E176F00EC0CF015
:101048006B0E0101166F7D0E176F00EC0CF01A0E77
:1010580001012D6F5E0E2C6F6E0EE82EFED72C2F21
:10106800FCD72D2FFAD700F012000101384B392B8D
:1010780039BFB9D7395104E1040E385DD8A0B3D7C8
:10108800000E5A6F000E356F000E346F35BF06D054
:10109800355114E1040E345DD8B010D0480E342513
:1010A800D96E010E3521DA6EDF50006F5A51E4EC2B
:1010B80017F001015A2B344B352BE8D76E0E166FFB
:1010C8007E0E176F00EC0CF01200010E0101166F76
:1010D8007C0E176F00EC0CF01A0E01012D6F5E0EDE
:1010E8002C6F6E0EE82EFED72C2FFCD72D2FFAD79B
:1010F80000F018EC18F0120018EC18F05EC100F1BE
:101108000101016B43EC18F001012C6F2C51546F55
:10111800556BE5C000F1016B43EC18F001012C6F31
:101128002C514A6E4B6A5CC100F1016B43EC18F01C
:1011380001012C6F2C51506F516B300E0001E46F80
:10114800000E01012F6F000E2E6F2FBF06D02F51FA
:1011580016E1020E2E5DD8B012D0E00E2E25D96E03
:10116800000E2F21DA6EE4C000F1016B43EC18F099
:10117800DF6E0001E42B01012E4B2F2BE6D718EC74
:1011880018F0010154055511D8B407D0410E166F57
:101198007F0E176F00EC0CF007D0680E0101166F78
:1011A8007F0E176F00EC0CF04A044B10D8B408D02F
:1011B8003C0E0101166F7F0E176F00EC0CF007D084
:1011C800630E0101166F7F0E176F00EC0CF0010122
:1011D80050055111D8A407D0BF0E166F7F0E176F98
:1011E80000EC0CF014D0020E010150195111D8A4D2
:1011F80007D0C90E166F7D0E176F00EC0CF007D0E4
:101208009B0E0101166F7F0E176F00EC0CF0590E44
:101218000101166F7A0E176FE0C018F1196BE1C063
:101228001AF11B6B44C01CF145C01DF146C01EF1EC
:1012380047C01FF100EC0CF081A816D0B8EC0DF0F7
:1012480000C1E2F001C1E3F08198070E01012D6FA2
:10125800580E2C6F590EE82EFED72C2FFCD72D2FA9
:10126800FAD700D0818806D09EAAFED7AECFE2F08A
:101278000001E36B010156055711D8A47DD0870EF4
:10128800166F7E0E176F00EC0CF0000E0101576F01
:10129800000E566F18EC18F01200540E0101166F6C
:1012A8007E0E176F00EC0CF0949E8188010E0101F0
:1012B800006F5C51E4EC17F00D0E01012D6FAF0EBD
:1012C8002C6FB60EE82EFED72C2FFCD72D2FFAD771
:1012D80037D01E0E0101166F7E0E176F00EC0CF052
:1012E800948E8198000E0101006F5C51E4EC17F0B8
:1012F8000D0E01012D6FAF0E2C6FB60EE82EFED726
:101308002C2FFCD72D2FFAD71BD0DE0E0101166F1C
:101318007F0E176F00EC0CF0948E8188020E01018D
:10132800006F5C51E4EC17F00D0E01012D6FAF0E4C
:101338002C6FB60EE82EFED72C2FFCD72D2FFAD700
:1013480000F0DCD618EC18F01200D20E0101166F6E
:101358007E0E176F00EC0CF00D0E01012D6FAF0E15
:101368002C6FB60EE82EFED72C2FFCD72D2FFAD7D0
:1013780000F018EC18F0C2D6E2C02CF1E3C02DF151
:1013880001012D51000AD8A4E0D72C51310AD8B454
:1013980084D7030AD8B49DD7010AD8B4B6D7070AA8
:1013A800D8B4D0D7D2D718EC18F05EC100F101013B
:1013B800016B43EC18F001012C6F2C51546F556BE5
:1013C800E5C000F1016B43EC18F001012C6F2C51C2
:1013D8004A6E4B6A5CC100F1016B43EC18F00101E5
:1013E8002C6F2C51506F516B300E0001E46F000EC2
:1013F80001012F6F000E2E6F2FBF06D02F5116E15F
:10140800020E2E5DD8B012D0E00E2E25D96E000E39
:101418002F21DA6EE4C000F1016B43EC18F0DF6EA7
:101428000001E42B01012E4B2F2BE6D75405551153
:10143800D8B407D0410E166F7F0E176F00EC0CF072
:1014480007D0680E0101166F7F0E176F00EC0CF0C5
:101458004A044B10D8B408D03C0E0101166F7F0E19
:10146800176F00EC0CF007D0630E0101166F7F0EAA
:10147800176F00EC0CF0010150055111D8A407D0EA
:10148800BF0E166F7F0E176F00EC0CF014D0020E13
:10149800010150195111D8A407D0C90E166F7D0E3D
:1014A800176F00EC0CF007D09B0E0101166F7F0E32
:1014B800176F00EC0CF0E00E0101166F7A0E176F33
:1014C800E0C018F1196BE1C01AF11B6B44C01CF1A4
:1014D80045C01DF146C01EF147C01FF100EC0CF0DD
:1014E80081A816D0B8EC0DF000C1E2F001C1E3F01C
:1014F8008198070E01012D6F580E2C6F590EE82E9A
:10150800FED72C2FFCD72D2FFAD700D0818806D0F4
:101518009EAAFED7AECFE2F00001E36B01015605AB
:101528005711D8A455D0870E166F7E0E176F00EC92
:101538000CF0000E0101576F000E566F18EC18F0F2
:101548001200F0B60ED0F086AD0E166F7F0E176F34
:1015580000EC0CF0010E0101006F5E51E4EC17F095
:101568000DD0F096760E166F7F0E176F00EC0CF00C
:10157800000E0101006F5E51E4EC17F00D0E010141
:101588002D6FAF0E2C6FB60EE82EFED72C2FFCD782
:101598002D2FFAD700F018EC18F007D718EC18F030
:1015A8001200D20E0101166F7E0E176F00EC0CF0C0
:1015B8000D0E01012D6FAF0E2C6FB60EE82EFED763
:1015C8002C2FFCD72D2FFAD700F018EC18F0EDD6F9
:1015D800E2C02CF1E3C02DF101012D51000AD8A47D
:1015E800E0D72C51310AD8B4ACD7030AD8B4D6D72F
:1015F800D8D718EC18F05EC100F10101016B43EC7B
:1016080018F001013A6F3A51546F556BE5C000F17B
:10161800016B43EC18F001013A6F3A514A6E4B6A7C
:101628005CC100F1016B43EC18F001013A6F3A51CB
:10163800506F516B300E0001E46F000E01013D6FD9
:10164800000E3C6F3DBF06D03D5116E1020E3C5DD9
:10165800D8B012D0E00E3C25D96E000E3D21DA6ECE
:10166800E4C000F1016B43EC18F0DF6E0001E42BDD
:1016780001013C4B3D2BE6D754055511D8B407D092
:10168800410E166F7F0E176F00EC0CF007D0680E36
:101698000101166F7F0E176F00EC0CF04A044B1017
:1016A800D8B408D03C0E0101166F7F0E176F00ECFE
:1016B8000CF007D0630E0101166F7F0E176F00EC58
:1016C8000CF0010150055111D8A407D0BF0E166FB8
:1016D8007F0E176F00EC0CF014D0020E01015019A8
:1016E8005111D8A407D0C90E166F7D0E176F00ECE4
:1016F8000CF007D09B0E0101166F7F0E176F00ECE0
:101708000CF0570E0101166F7B0E176FE0C018F131
:10171800196BE1C01AF11B6B44C01CF145C01DF1E7
:1017280046C01EF147C01FF100EC0CF081A816D08E
:10173800B8EC0DF000C1E2F001C1E3F08198070EAA
:1017480001013B6F580E3A6F590EE82EFED73A2F1B
:10175800FCD73B2FFAD700D0818806D09EAAFED7A7
:10176800AECFE2F00001E36B010156055711D8A492
:1017780032D0870E166F7E0E176F00EC0CF0000E3D
:101788000101576F000E566F18EC18F01200FE0E8C
:101798000101166F7E0E176F00EC0CF0C8EC06F016
:1017A8002AD718EC18F01200D20E0101166F7E0E1F
:1017B800176F00EC0CF00D0E01013B6FAF0E3A6F86
:1017C800B60EE82EFED73A2FFCD73B2FFAD700F0FB
:1017D80018EC18F010D7E2C03AF1E3C03BF1010170
:1017E8003B51000AD8A4E0D73A51310AD8B4CFD730
:1017F800030AD8B4D6D7D8D7180E0101246F010E22
:10180800256FC8D0250E2B19D8B404D02B515EEC07
:1018180018F0C0D0000E0101266F01D0268916C12C
:10182800F6FF17C1F7FF164B172B0800F5CF2BF162
:101838002B51000AD8B41200640AD8B407D00D0A94
:10184800D8B404D0050AD8B4E9D7A4D026A90ED0B4
:1018580024C1D9FF25C1DAFFDECF27F1DECF28F179
:10186800DECF29F1DECF2AF1040E0ED024C1D9FF34
:1018780025C1DAFFDECF27F1DDCF28F1000E28BF22
:10188800FF0E296F2A6F020E2427000E25232AAF88
:101898000AD0030E26132A1F291F281F276D000EA2
:1018A800282329232A23010E2B6F0A0E2B19D8B4BB
:1018B80018D02B51040DF50EF324F66E780EF42093
:1018C800F76E0900F550275D0900F5502859090001
:1018D800F55029590900F5502A59D8A002D02B2BC8
:1018E800E4D726C120F1030E2017D8B403D02D0E5B
:1018F8005EEC18F001012B51226F236B22BF2307E6
:1019080040D022C120F123C121F1D89020372137BE
:10191800D89020372137F50E2025F66E780E212134
:10192800F76E0900F5CF04F10900F5CF05F10900BC
:10193800F5CF06F10A00F5CF07F127C100F128C15C
:1019480001F129C102F12AC103F1E7EC15F000C148
:101958000DF101C10EF102C10FF103C110F10A0E20
:101968000101116F000E126F000E136F000E146F3D
:101978001DEC17F001010D51300F2B6F2B515EEC50
:1019880018F001012207D8A023072229BAE1232948
:10199800D8A4B7D716C1F6FF17C1F7FF0101164B38
:1019A800172B0800F5CF2BF12B51D8B412002AD7EA
:1019B800980E0001A06F000EA16FC8D0250EA719C0
:1019C800D8B404D0A75165EC18F0C0D0000E0001BF
:1019D800A26F01D0A28996C0F6FF97C0F7FF964B79
:1019E800972B0800F5CFA7F0A751000AD8B412002A
:1019F800640AD8B407D00D0AD8B404D0050AD8B4FC
:101A0800E9D7A4D0A2A90ED0A0C0D9FFA1C0DAFFFF
:101A1800DECFA3F0DECFA4F0DECFA5F0DECFA6F0B8
:101A2800040E0ED0A0C0D9FFA1C0DAFFDECFA3F00C
:101A3800DDCFA4F0000EA4BFFF0EA56FA66F020EA7
:101A4800A027000EA123A6AF0AD0030EA213A61F3B
:101A5800A51FA41FA36D000EA423A523A623010E72
:101A6800A76F0A0EA719D8B418D0A751040DF50E00
:101A7800F324F66E780EF420F76E0900F550A35D96
:101A88000900F550A4590900F550A5590900F55069
:101A9800A659D8A002D0A72BE4D7A2C09CF0030E69
:101AA8009C17D8B403D02D0E65EC18F00001A7518F
:101AB8009E6F9F6B9EBF9F0740D09EC09CF09FC0AB
:101AC8009DF0D8909C379D37D8909C379D37F50E60
:101AD8009C25F66E780E9D21F76E0900F5CF84F0EF
:101AE8000900F5CF85F00900F5CF86F00A00F5CF9B
:101AF80087F0A3C080F0A4C081F0A5C082F0A6C082
:101B080083F029EC16F080C08DF081C08EF082C081
:101B18008FF083C090F00A0E0001916F000E926F53
:101B2800000E936F000E946F51EC17F000018D5169
:101B3800300FA76FA75165EC18F000019E07D8A0D9
:101B48009F079E29BAE19F29D8A4B7D796C0F6FF68
:101B580097C0F7FF0001964B972B0800F5CFA7F029
:101B6800A751D8B412002AD7959095929594959636
:101B78009588958A958C958E838083928394839695
:101B880083B883BA09D083AC83BE06D0000E0101A6
:101B9800016F310E006F120083A883AA09D083ACAD
:101BA80083BE06D0000E0101016F320E006F1200D5
:101BB80083A883BA09D083BC83BE06D0000E010176
:101BC800016F330E006F120083A883BA09D083AC6B
:101BD80083AE06D0000E0101016F410E006F1200A6
:101BE800839083828394839683B883BA09D083AC25
:101BF80083BE06D0000E0101016F340E006F120083
:101C080083A883AA09D083AC83BE06D0000E010145
:101C1800016F350E006F120083A883BA09D083BC08
:101C280083BE06D0000E0101016F360E006F120050
:101C380083A883BA09D083AC83AE06D0000E010115
:101C4800016F420E006F1200839083928384839603
:101C580083B883BA09D083AC83BE06D0000E0101D5
:101C6800016F370E006F120083A883AA09D083ACD6
:101C780083BE06D0000E0101016F380E006F1200FE
:101C880083A883BA09D083BC83BE06D0000E0101A5
:101C9800016F390E006F120083A883BA09D083AC94
:101CA80083AE06D0000E0101016F430E006F1200D3
:101CB800839083928394838683B883BA09D083AC54
:101CC80083BE06D0000E0101016F2A0E006F1200BC
:101CD80083A883AA09D083AC83BE06D0000E010175
:101CE800016F300E006F120083A883BA09D083BC3D
:101CF80083BE06D0000E0101016F230E006F120093
:101D080083A883BA31D783AC83AE2ED7000E0101E6
:101D1800016F440E006F12009590959295949596D8
:101D28009588958A958C958E8380839283948396E3
:101D380083B883BA09D083AC83BE06D0000E0001F5
:101D4800816F310E806F120083A883AA09D083ACFB
:101D580083BE06D0000E0001816F320E806F120024
:101D680083A883BA09D083BC83BE06D0000E0001C5
:101D7800816F330E806F120083A883BA09D083ACB9
:101D880083AE06D0000E0001816F410E806F1200F5
:101D9800839083828394839683B883BA09D083AC73
:101DA80083BE06D0000E0001816F340E806F1200D2
:101DB80083A883AA09D083AC83BE06D0000E000195
:101DC800816F350E806F120083A883BA09D083BC57
:101DD80083BE06D0000E0001816F360E806F1200A0
:101DE80083A883BA09D083AC83AE06D0000E000165
:101DF800816F420E806F1200839083928384839652
:101E080083B883BA09D083AC83BE06D0000E000124
:101E1800816F370E806F120083A883AA09D083AC24
:101E280083BE06D0000E0001816F380E806F12004D
:101E380083A883BA09D083BC83BE06D0000E0001F4
:101E4800816F390E806F120083A883BA09D083ACE2
:101E580083AE06D0000E0001816F430E806F120022
:101E6800839083928394838683B883BA09D083ACA2
:101E780083BE06D0000E0001816F2A0E806F12000B
:101E880083A883AA09D083AC83BE06D0000E0001C4
:101E9800816F300E806F120083A883BA09D083BC8B
:101EA80083BE06D0000E0001816F230E806F1200E2
:101EB80083A883BA31D783AC83AE2ED7000E000136
:101EC800816F440E806F1200190E1D6E000E1E6E7B
:101ED800C3D0250E2418D8B404D024506CEC18F0C4
:101EE800BBD0000E1F6E01D01F8817C0F6FF18C0A8
:101EF800F7FF174A182A0800F5CF24F02450000AE3
:101F0800D8B41200640AD8B407D00D0AD8B404D0E3
:101F1800050AD8B4E9D7A0D01FA80ED01DC0D9FF94
:101F28001EC0DAFFDECF20F0DECF21F0DECF22F0B8
:101F3800DECF23F0040E0ED01DC0D9FF1EC0DAFF7D
:101F4800DECF20F0DDCF21F0000E21BEFF0E226E85
:101F5800236E020E1D26000E1E2223AE0AD0030E8B
:101F68001F12231E221E211E206C000E2122222257
:101F78002322010E246E0A0E2418D8B418D0245037
:101F8800040DF50EF324F66E780EF420F76E0900B2
:101F9800F550205C0900F55021580900F5502258E9
:101FA8000900F5502358D8A002D0242AE4D71FC02E
:101FB80019F0030E1916D8B403D02D0E6CEC18F0D6
:101FC80024501B6E1C6A1BBE1C063ED01BC019F099
:101FD8001CC01AF0D89019361A36D89019361A3605
:101FE800F50E1924F66E780E1A20F76E0900F5CF53
:101FF80005F00900F5CF06F00900F5CF07F00A0053
:10200800F5CF08F020C001F021C002F022C003F093
:1020180023C004F06BEC16F001C00EF002C00FF004
:1020280003C010F004C011F00A0E126E000E136EF9
:10203800000E146E000E156E85EC17F00E50300F62
:10204800246E24506CEC18F01B06D8A01C061B2824
:10205800BDE11C28D8A4BAD717C0F6FF18C0F7FFEF
:10206800174A182A0800F5CF24F02450D8B41200D3
:1020780030D795909592959495969588958A958C54
:10208800958E838083928394839683B883BA08D08D
:1020980083AC83BE05D0000E026E310E016E1200B5
:1020A80083A883AA08D083AC83BE05D0000E026E35
:1020B800320E016E120083A883BA08D083BC83BE97
:1020C80005D0000E026E330E016E120083A883BA8B
:1020D80008D083AC83AE05D0000E026E410E016EAF
:1020E8001200839083828394839683B883BA08D03E
:1020F80083AC83BE05D0000E026E340E016E120052
:1021080083A883AA08D083AC83BE05D0000E026ED4
:10211800350E016E120083A883BA08D083BC83BE33
:1021280005D0000E026E360E016E120083A883BA27
:1021380008D083AC83AE05D0000E026E420E016E4D
:102148001200839083928384839683B883BA08D0DD
:1021580083AC83BE05D0000E026E370E016E1200EE
:1021680083A883AA08D083AC83BE05D0000E026E74
:10217800380E016E120083A883BA08D083BC83BED0
:1021880005D0000E026E390E016E120083A883BAC4
:1021980008D083AC83AE05D0000E026E430E016EEC
:1021A8001200839083928394838683B883BA08D07D
:1021B80083AC83BE05D0000E026E2A0E016E12009B
:1021C80083A883AA08D083AC83BE05D0000E026E14
:1021D800300E016E120083A883BA08D083BC83BE78
:1021E80005D0000E026E230E016E120083A883BA7A
:1021F80040D783AC83AE3DD7000E026E440E016E0D
:102208001200070E0001A96F580EA86F590EE82E8C
:10221800FED7A82FFCD7A92FFAD700D0D30E0001DC
:10222800966F7F0E976FDCEC0CF081A831D0000E12
:102238000001AB6F000EAA6FABBF06D0AB5151E1E6
:10224800040EAA5DD8B04DD04C0EAA25D96E010E49
:10225800AB21DA6E90EC0EF000018051DF6EFD0EBE
:10226800966F7F0E976FDCEC0CF081980D0E0001D5
:10227800A96FAF0EA86FB60EE82EFED7A82FFCD711
:10228800A92FFAD700F081880001AA4BAB2BD4D72D
:10229800000E0001AD6F000EAC6FADBF06D0AD51A2
:1022A80020E1040EAC5DD8B01CD09EAAFED74C0E1F
:1022B8000001AC25D96E010EAD21DA6EAECFDFFF7D
:1022C800FD0E966F7F0E976FDCEC0CF00001AC4BA7
:1022D800AD2BADBFEAD7AD5104E1040EAC5DD8A07B
:1022E800E4D7000E01015A6F000E0001AF6F000E17
:1022F800AE6FAFBF06D0AF5125E1040EAE5DD8B0CA
:1023080021D05AC180F0816B4CEC18F001015B6F51
:102318005A2B4C0E0001AE25D96E010EAF21DA6E94
:1023280001015B51DE18D8B405D0000E596F010EBB
:10233800586F08D0000E596F000E586F0001AE4B51
:10234800AF2BD7D7010158515911D8A408D0E90E9D
:102358000001966F7E0E976FDCEC0CF01200020EF7
:102368000001966F7E0E976FDCEC0CF04AD7070ED3
:1023780001012D6F580E2C6F590EE82EFED72C2F09
:10238800FCD72D2FFAD700D0D30E0101166F7F0E80
:10239800176F00EC0CF081A831D0000E01012F6FEF
:1023A800000E2E6F2FBF06D02F5151E1040E2E5D67
:1023B800D8B04DD04C0E2E25D96E010E2F21DA6ED5
:1023C800B8EC0DF001010051DF6EFD0E166F7F0EA7
:1023D800176F00EC0CF081980D0E01012D6FAF0EF8
:1023E8002C6FB60EE82EFED72C2FFCD72D2FFAD740
:1023F80000F0818801012E4B2F2BD4D7000E01014C
:10240800316F000E306F31BF06D0315120E1040E1C
:10241800305DD8B01CD09EAAFED74C0E01013025E5
:10242800D96E010E3121DA6EAECFDFFFFD0E166FC9
:102438007F0E176F00EC0CF00101304B312B31BFD0
:10244800EAD7315104E1040E305DD8A0E4D7000E7C
:102458005A6F000E336F000E326F33BF06D0335100
:1024680022E1040E325DD8B01ED05AC100F1016BD2
:1024780043EC18F001015B6F5A2B4C0E3225D96ED4
:10248800010E3321DA6E5B51DE18D8B405D0000E88
:10249800596F010E586F07D0000E596F000E586F14
:1024A800324B332BDAD758515911D8A407D0E90E3B
:1024B800166F7E0E176F00EC0CF01200020E010171
:1024C800166F7E0E176F00EC0CF051D7070E266EB4
:1024D800580E256E5A0EE82EFED7252EFCD7262E2E
:1024E800FAD7D30E176E7F0E186E68EC0FF081A81E
:1024F8002DD0000E286E000E276E28BE06D028505C
:102508004BE1040E275CD8B047D04C0E2724D96E77
:10251800010E2820DA6E3DEC10F00150DF6EFD0E42
:10252800176E7F0E186E68EC0FF081980D0E266EF0
:10253800AF0E256EB60EE82EFED7252EFCD7262E1A
:10254800FAD700D08188274A282AD7D7000E2A6EC2
:10255800000E296E2ABE06D02A501EE1040E295C00
:10256800D8B01AD09EAAFED74C0E2924D96E010ED7
:102578002A20DA6EAECFDFFFFD0E176E7F0E186EC3
:1025880068EC0FF0294A2A2A2ABEECD72A5004E11F
:10259800040E295CD8A0E6D7000E01015A6F000E80
:1025A8002C6E000E2B6E2CBE06D02C5022E1040E91
:1025B8002B5CD8B01ED05AC101F0026A55EC18F055
:1025C80001015B6F5A2B4C0E2B24D96E010E2C2067
:1025D800DA6E5B51DE18D8B405D0000E596F010EC3
:1025E800586F07D0000E596F000E586F2B4A2C2ACF
:1025F800DAD758515911D8A407D0E90E176E7E0EB4
:10260800186E68EC0FF01200020E176E7E0E186E30
:1026180068EC0FF05BD7C3500001DA6FDB6BDC6B43
:10262800DD6BC450D66FD76BD86BD96BD6C0B1F001
:10263800D7C0B2F0D8C0B3F0B06BB0C0D6F0B1C05C
:10264800D7F0B2C0D8F0B3C0D9F0D651DA25D26FDE
:10265800D751DB21D36FD851DC21D46FD951DD217B
:10266800D56FD2C080F0D3C081F0D4C082F0D5C07D
:1026780083F0F40E846F010E856F000E866F000ED6
:10268800876FB8EC17F080C044F081C045F082C075
:1026980046F083C047F044C080F045C081F046C092
:1026A80082F047C083F0FF0E0001846F030E856F30
:1026B800000E866F000E876F28EC15F080C044F07E
:1026C80081C045F082C046F083C047F0CE0E442456
:1026D800446EFF0E4520456EFF0E4620466EFF0EE7
:1026E8004720476E660E0001956FE60E966F3F0E07
:1026F800976F44C088F045C089F046C08AF047C04B
:102708008BF0ACEC16F088C092F089C093F08AC0C8
:1027180094F0ADEC14F092C0A1F093C0A2F094C074
:10272800A3F031EC14F0A1C044F0A2C045F0A3C05E
:1027380046F0A4C047F0200E4426000E452246224B
:10274800472212000600FACF32F0FBCF33F0E9CF70
:1027580034F0EACF35F0E1CF36F0E2CF37F0D9CF19
:1027680038F0DACF39F0F3CF3AF0F4CF3BF0F6CFC8
:102778003CF0F7CF3DF0F8CF3EF0F5CF3FF04FC03B
:1027880040F050C041F051C042F052C043F036EC26
:1027980018F0E60E176E7D0E186E68EC0FF0AA0E94
:1027A800176E7D0E186E68EC0FF08184000E010123
:1027B800576F010E566F6AEC12F048C02DF049C0F1
:1027C8002EF0000E2EBEFF0E2F6E306E2D50445C84
:1027D8002E5045582F5046584750800A316E305079
:1027E800800A3158D8A00BD04A044B10D8A407D07F
:1027F8008A0E176E7C0E186E68EC0FF006D0B10EBC
:10280800176E7C0E186E68EC0FF0F090819443C040
:1028180052F042C051F041C050F040C04FF03FC0AC
:10282800F5FF3EC0F8FF3DC0F7FF3CC0F6FF3BC0D8
:10283800F4FF3AC0F3FF39C0DAFF38C0D9FF37C018
:10284800E2FF36C0E1FF35C0EAFF34C0E9FF33C01C
:10285800FBFF32C0FAFF4F921100A3C0A5F00001A0
:10286800A66BA76BA235A53701E3A681A551AF6F6B
:10287800AF51D8A409D0000EA16F000EA26F000EB0
:10288800A36F000EA46F1200170EA56FA1C0A6F0CB
:10289800A2C0A7F0A3C0A8F0A529A96F04D0D8901A
:1028A800A833A733A633A92FFAD70001A651AA6FD8
:1028B800A28FFF0EA117FF0EA217000EA317A1519A
:1028C800AB6FA251AC6FA351AD6FAE6B8E0EAF5F05
:1028D800AFAF16D0AF51800A8F0FD8B009D0000E15
:1028E800A16F000EA26F000EA36F000EA46F12005E
:1028F800D890AE33AD33AC33AB33AF3FF9D715D047
:10290800170EAF650FD0000EA16F000EA26F000E5C
:10291800A36F000EA46F1200D890AB37AC37AD3759
:10292800AE37AF07AF51D8A4F7D7AA51D8B408D05B
:10293800AE1FAD1FAC1FAB6D000EAC23AD23AE2395
:10294800ABC0A1F0ACC0A2F0ADC0A3F0AEC0A4F083
:10295800120094C098F00001996B9A6B93359837E0
:1029680001E3998198519B6F9B51D8A407D0000E21
:10297800926F000E936F000E946F120097C098F03C
:10298800996B9A6B9635983701E399819851A06FA6
:10299800A051D8A407D0000E926F000E936F000EBE
:1029A800946F1200A0517B0F9B2794C0A0F0975101
:1029B800A01B800EA017938F968FFF0E9517FF0E02
:1029C8009617000E9717000E9C6F000E9D6F000E55
:1029D8009E6F070E9F6F92A106D095519C27965126
:1029E8009D2397519E23D890943393339233D89054
:1029F8009537963797379F2FEED7090E9F6F92A17D
:102A080006D095519C2796519D2397519E23D89087
:102A1800943393339233D8909E339D339C339F2FB6
:102A2800EED79CC080F09DC081F09EC082F09BC014
:102A380083F0A0C084F08FEC15F080C092F081C0C4
:102A480093F082C094F01200000E0001896F87AFE6
:102A58000AD0871F861F851F846D000E8523862355
:102A68008723010E896F83AF0AD0831F821F811FBE
:102A7800806D000E812382238323010E891B000EA3
:102A88008A6F000E8B6F000E8C6F000E8D6F845155
:102A9800851186118711D8B42AD0010E886F06D007
:102AA800D8908437853786378737882B87AFF8D70C
:102AB800D8908A378B378C378D378451805D855114
:102AC80081598651825987518359D8A009D0845198
:102AD800805F8551815B8651825B8751835B8A81E8
:102AE800D8908733863385338433882FE1D789514B
:102AF800D8B408D08D1F8C1F8B1F8A6D000E8B23B6
:102B08008C238D238AC080F08BC081F08CC082F02A
:102B18008DC083F0120000018351D8B405D08051D4
:102B280081118211D8A40CD0000E806F000E816F25
:102B3800000E826F1200832BD8908233813380334A
:102B4800000E8015856F000E8115866FFE0E8215AA
:102B5800876F855186118711D8B40CD0ECD7832B99
:102B6800010E8027000E8123000E8223D890823325
:102B780081338033000E8015856F000E8115866FB6
:102B8800FF0E8215876F855186118711D8B406D03C
:102B9800E6D78307D89080378137823781BF03D043
:102BA800020E8361F6D783A1819FD8908333835126
:102BB80082138451D8A4828F80C080F081C081F0B4
:102BC80082C082F01200000E0101086F000E096F2A
:102BD800000E0A6F000E0B6F045105110611071144
:102BE800D8B42AD0010E0C6F06D0D8900437053718
:102BF800063707370C2B07AFF8D7D89008370937AF
:102C08000A370B370451005D055101590651025925
:102C180007510359D8A009D00451005F0551015B41
:102C28000651025B0751035B0881D89007330633CE
:102C3800053304330C2FE1D708C100F109C101F1B4
:102C48000AC102F10BC103F11200000E0001886FE6
:102C5800000E896F000E8A6F000E8B6F84518511EC
:102C680086118711D8B42AD0010E8C6F06D0D8905F
:102C780084378537863787378C2B87AFF8D7D89036
:102C8800883789378A378B378451805D85518159D8
:102C98008651825987518359D8A009D08451805FC1
:102CA8008551815B8651825B8751835B8881D8908F
:102CB80087338633853384338C2FE1D788C080F0FF
:102CC80089C081F08AC082F08BC083F01200000EA8
:102CD800096E000E0A6E000E0B6E000E0C6E05508B
:102CE800061007100810D8B42AD0010E0D6E06D0B1
:102CF800D89005360636073608360D2A08AEF8D7B6
:102D0800D89009360A360B360C360550015C065049
:102D180002580750035808500458D8A009D0055045
:102D2800015E0650025A0750035A0850045A098097
:102D3800D89008320732063205320D2EE1D709C085
:102D480001F00AC002F00BC003F00CC004F012003E
:102D5800000E0001916F8E0E906F8BAF11D08B1FFC
:102D68008A1F891F886D000E89238A238B23010EF1
:102D7800916F06D0D8908B338A3389338833902B60
:102D8800000E88158C6F000E89158D6F000E8A1540
:102D98008E6FFF0E8B158F6F8C518D118E118F11C9
:102DA800D8A4E8D788C080F089C081F08AC082F0B2
:102DB80090C083F091C084F08FEC15F080C088F04B
:102DC80081C089F082C08AF01200E40EF66E300EDF
:102DD800F76E000EF86E0900F5CF5CF10900F5CF2B
:102DE8005DF10900F5CF5EF1E70EF66E300EF76E75
:102DF800000EF86E0900F5CFE4F00900F5CFE5F014
:102E080001EE48F0140EEE6AE806FDE100EED2F09D
:102E1800120EEE6AE806FDE100EE44F00B0EEE6AD3
:102E2800E806FDE14F904F92000EF86E00016FEF3B
:102E380004F001011151121113111411D8B424D046
:102E4800010E156F06D0D890113712371337143783
:102E5800152B14AFF8D711510D5D12510E5913519E
:102E68000F5914511059D8A008D011510D5F1251A3
:102E78000E5B13510F5B1451105BD890143313334E
:102E880012331133152FE7D70DC10DF10EC10EF115
:102E98000FC10FF110C110F11200000191519211F0
:102EA80093119411D8B424D0010E956F06D0D89000
:102EB8009137923793379437952B94AFF8D7915130
:102EC8008D5D92518E5993518F5994519059D8A034
:102ED80008D091518D5F92518E5B93518F5B9451C5
:102EE800905BD8909433933392339133952FE7D7EF
:102EF8008DC08DF08EC08EF08FC08FF090C090F096
:102F080012001250131014101510D8B424D0010E4A
:102F1800166E06D0D8901236133614361536162A81
:102F280015AEF8D712500E5C13500F5814501058A5
:102F380015501158D8A008D012500E5E13500F5AD1
:102F48001450105A1550115AD890153214321332A1
:102F58001232162EE7D70EC00EF00FC00FF010C0B9
:102F680010F011C011F01200000E0001886F000E61
:102F7800896F000E8A6F000E8B6F80A108D0845174
:102F880088278551892386518A2387518B23D89096
:102F98008437853786378737D890833382338133B0
:102FA80080338051811182118311D8A4E6D788C05B
:102FB80080F089C081F08AC082F08BC083F0120053
:102FC8000101026F02C1A9FF00C1A8FFA69EA69C2D
:102FD800A684F29E550EA76EAA0EA76EA682C30EF1
:102FE8000101016FCD0EE82EFED7012FFCD7F28E1E
:102FF800A69412000001826F82C0A9FF80C0A8FFBA
:10300800A69EA69CA684F29E550EA76EAA0EA76E33
:10301800A682C30E0001816FCD0EE82EFED7812F48
:10302800FCD7F28EA6941200F50E0101166F7F0EE2
:10303800176F00EC0CF0EE0E0101166F7F0E176F84
:1030480000EC0CF01200F50E0001966F7F0E976FE2
:10305800DCEC0CF0EE0E0001966F7F0E976FDCEC47
:103068000CF01200F50E176E7F0E186E68EC0FF05C
:10307800EE0E176E7F0E186E68EC0FF0120000C18E
:10308800A9FFA69CA69EA68000F000F0A8501200FA
:1030980080C0A9FFA69CA69EA68000F000F0A850BC
:1030A800120001C0A9FFA69CA69EA68000F000F011
:1030B800A85012000101006F9EA8FED700C1ADFF05
:1030C80012000001806F9EA8FED780C0ADFF1200DD
:1030D800016E9EA8FED701C0ADFF1200504010300F
:0130E80020C7
:1078F40000010000000A00000064000000E803002A
:107904000010270000A086010040420F00809698D6
:107914000000E1F50500CA9A3B54656D706572611B
:1079240074757265205468726573686F6C643A206C
:10793400256425640A0D43757272656E742054655E
:107944006D70205B465D3A20256C640A0D0A0D417A
:107954006C61726D2053797374656D0A0D2D2D2D34
:107964002D2D2D2D2D2D2D2D2D2D2D2D2D2D0A0D86
:10797400312950617373776F72640A0D322950494B
:10798400522053656E736F720A0D332954656D70FE
:107994002053656E736F720A0D3429496E707574C5
:1079A400204D6574686F640A0D2D2D2D2D2D2D2D00
:1079B4002D2D2D2D2D2D2D2D2D0A0D0054656D7081
:1079C40065726174757265205468726573686F6C52
:1079D400643A20256425640A0D43757272656E74D9
:1079E4002054656D70205B465D3A20256C640A0D59
:1079F4000A0D54656D706572617475726520536506
:107A04006E736F72204F5054494F4E530A0D3129F3
:107A140020456E61626C652F44697361626C6520F8
:107A2400416C61726D0A0D32292054656D70657266
:107A34006174757265205468726573686F6C640A4A
:107A44000D33292052657475726E20746F204D6554
:107A54006E750A0D0054656D70657261747572659A
:107A6400205468726573686F6C643A2025642564D9
:107A74000A0D43757272656E742054656D70205BD7
:107A8400465D3A20256C640A0D0A0D494E50555442
:107A9400204F5054494F4E533A0A0D312920557303
:107AA40065204B65797061640A0D32292055736530
:107AB400204B6579626F6172640A0D332920557316
:107AC4006520424F54480A0D34292052657475725A
:107AD4006E20746F204D656E750A0D0054656D70CF
:107AE40065726174757265205468726573686F6C31
:107AF400643A20256425640A0D43757272656E74B8
:107B04002054656D70205B465D3A20256C640A0D37
:107B14000A0D5049522053656E736F72204F5054B2
:107B2400494F4E530A0D312920456E61626C652F11
:107B340044697361626C6520416C61726D0A0D3237
:107B4400292052657475726E20746F204D656E75B0
:107B54000A0D0054656D7065726174757265205408
:107B640068726573686F6C643A20256425640A0D35
:107B740043757272656E742054656D70205B465D4A
:107B84003A20256C640A0D0A0D50415353574F5245
:107B940044204F5054494F4E530A0D3129436861D4
:107BA4006E67652050617373776F72640A0D3229B2
:107BB4002052657475726E20746F204D656E750A5F
:107BC4000D000A0D446F20796F752077616E742063
:107BD400746F206368616E676520746865207465DE
:107BE4006D70207468726573686F6C643F0A0D3140
:107BF400295965730A0D414E59294E6F000A0D50DB
:107C0400617373776F726420496E76616C69642E58
:107C140020476F696E67206261636B20746F205028
:107C2400617373776F7264204D656E752E2E2E2EE0
:107C34000A0D000A0D0A0D0A0D54454D50205448F2
:107C4400524553484F4C44204F4620256425642018
:107C540045584345454445440A0D0A0D0A0D000A9A
:107C64000D4F4E4C5920302D392043414E20424572
:107C7400205553454420494E2050415353574F52A9
:107C8400440A0D0A0D000A0D454E54455220504138
:107C94005353574F524420544F2052455345542078
:107CA40054454D5020414C41524D0A0D000A0D508F
:107CB4007265737320416E7920427574746F6E20FF
:107CC400746F2072657475726E20746F204D656ECA
:107CD400750A0D000A0D0A0D54656D7065726174A4
:107CE400757265205468726573686F6C642073657F
:107CF4007420746F2025642046000A0D4F4E4C59A1
:107D040020302D392043414E2042452055534544CF
:107D140020494E2050415353574F52440A0D000AF4
:107D24000D4F4E4C5920302D392043414E204245B1
:107D3400205553454420464F522054454D500A0D7A
:107D44000A0D000A0D456E746572206E6577205425
:107D5400656D7065726174757265205468726573BF
:107D6400686F6C643A200052657475726E696E6750
:107D740020746F2050617373776F7264204D656E49
:107D8400752E2E2E0A0D00494E5055543A204B653F
:107D94007970616420616E64204B6579626F6172F1
:107DA400640A0D0A0D000A0D454E544552205041F7
:107DB4005353574F524420544F20434F4E54494E2F
:107DC40055450A0D00494E5055543A204B455950DB
:107DD400414420616E64204B4559424F4152440A4C
:107DE4000D000A0D0A0D0A0D414C41524D2054520A
:107DF400494747455245440A0D0A0D0A0D000A0D2C
:107E040078787878787878494E56414C494478782F
:107E140078787878780A0D0A0D000A0D5573696E22
:107E240067204B6579626F61726420617320496ECB
:107E34007075740A0D000A0D54656D706572617475
:107E440075726520416C61726D204F46460A0D00C3
:107E54000A0D5573696E67204B6579706164206102
:107E64007320496E7075740A0D000A0D0A0D506175
:107E74007373776F7264204368616E6765640A0D7B
:107E84000A0D000A0D52657475726E696E6720746E
:107E94006F204D656E752E2E2E0A0D000A0D546549
:107EA4006D706572617475726520416C61726D20CC
:107EB4004F4E0A0D00456E746572204375727265EB
:107EC4006E742050617373776F72643A20000A45B0
:107ED40052524F5220494E56414C494420494E502B
:107EE40055540A0D000A0D50415353574F52442024
:107EF40056414C49440A0D0A0D004368616E67659A
:107F0400642050617373776F72640A0D0A0D004523
:107F14006E746572204E65772050617373776F724B
:107F2400643A2000494E5055543A204B6579626FAB
:107F34006172640A0D0A0D0054656D7020416C6114
:107F4400726D206973204F46460A0D000A0D506178
:107F54007373776F7264205345540A0D0A0D0054ED
:107F6400656D7020416C61726D206973204F4E0AFB
:107F74000D00416C61726D2044697361626C6564CB
:107F84000A0A0D0D00494E5055543A204B6579703C
:107F940061640A0D0A0D00494E5055543A204B4570
:107FA40059424F4152440A0D00416C61726D2045A3
:107FB4006E61626C65640A0A0D0D00494E50555499
:107FC4003A204B45595041440A0D00534554205022
:107FD400415353574F52443A09000A0D424F5448F3
:107FE4000A0D000A0D25640A0D001B5B303B304866
:0C7FF400001B5B324A002564002A0000DC
:020000040020DA
:08000000FFFFFFFFFFFFFFFF00
:020000040030CA
:0E000000FF02191EFF8181FF0FC00FE00F40AD
:00000001FF
