:04000000A4EF00F079
:06000800468204ED06F043
:100018004680D8CF81F0E8CF82F0E0CF83F0FACFE6
:1000280084F0FBCF85F0E9CF86F0EACF87F0E1CF07
:1000380088F0E2CF89F0D9CF8AF0DACF8BF0F3CF0E
:100048008CF0F4CF8DF0F6CF8EF0F7CF8FF0F8CF9D
:1000580090F0F5CF91F046C092F047C093F048C0B9
:1000680094F049C095F0F2A43CD0818A410E000179
:10007800806FEE0EE82EFED7802FFCD700F0C282EC
:10008800410E0001806FEE0EE82EFED7802FFCD7C0
:1000980000F0C2B2FED7C3CF42F0436AC4CF40F0EB
:1000A800416A4050416E406A405042243E6E415081
:1000B80043203F6E030E2E6E2D683EC02BF03FC0CE
:1000C8002CF0BEEC06F02BC033F02CC034F0000E40
:1000D800366E320E356E36EC08F033C0BDF034C0E3
:1000E800BEF09E9CF294819A95C049F094C048F065
:1000F80093C047F092C046F091C0F5FF90C0F8FF5A
:100108008FC0F7FF8EC0F6FF8DC0F4FF8CC0F3FFE1
:100118008BC0DAFF8AC0D9FF89C0E2FF88C0E1FF3F
:1001280087C0EAFF86C0E9FF85C0FBFF84C0FAFFED
:1001380083C0E0FF82C0E8FF81C0D8FF469010006E
:10014800D0EF07F0AC8AAB8E020E936E000E956E60
:10015800819481968198819A948E949C1F0EAF6E9B
:10016800AC98AC94AB9CAB8EAB88F29EF29CD08ED4
:100178009E9C9D9C9F9CF08CF096F090C29AC29891
:10018800C296C294C292C280C19AC198C186C184E3
:10019800C182C190C08EC08AC09AC09AC084C092E1
:1001A800C090D59ED59CD59AD596D584D592D58024
:1001B800F28AF294F194F28EF28C670ED76E6A0E80
:1001C800D66E49EC08F0B80E00019E6F7F0E9F6F47
:1001D80063EC04F0000E0001B46F000EB36FB4BFFF
:1001E80006D0B45120E1040EB35DD8B01CD09EAA4D
:1001F800FED7C70E0001B325D96E000EB421DA6E02
:10020800AECFDFFFFC0E9E6F7F0E9F6F63EC04F096
:100218000001B34BB42BB4BFEAD7B45104E1040EC8
:10022800B35DD8A0E4D7A70E9E6F7F0E9F6F63ECD7
:1002380004F08186D58E0001B951BA11D8A407D02F
:10024800C70E9E6F7F0E9F6F63EC04F007D0D60E2B
:1002580000019E6F7F0E9F6F63EC04F00001B751A1
:10026800B811D8A407D0440E9E6F7F0E9F6F63EC21
:1002780004F007D06E0E00019E6F7F0E9F6F63EC37
:1002880004F0C30E00019E6F7B0E9F6FBDC0A0F0EF
:10029800BEC0A1F063EC04F09EAAFED7AECFC1F0B9
:1002A8000001C26BBB05BC11D8A431D0B80E9E6F3B
:1002B8007E0E9F6F63EC04F0000E0001BC6F000E11
:1002C800BB6F49EC08F0B5D788EC05F0B4D72EEC35
:1002D80003F0B1D7A2EC01F0AED770EC02F0ABD7C7
:1002E800030E00019E6F7F0E9F6F63EC04F00D0EEE
:1002F8000001B26FAF0EB16FB60EE82EFED7B12F68
:10030800FCD7B22FFAD700F049EC08F094D7C1C057
:10031800B1F0C2C0B2F00001B251000AD8A4E0D7CF
:10032800B151310AD8B4D0D7030AD8B4D0D7010A0A
:10033800D8B4D0D7070AD8B4D0D7D2D749EC08F068
:100348000001B951BA11D8A407D0C70E9E6F7F0E0D
:100358009F6F63EC04F007D0D60E00019E6F7F0EEE
:100368009F6F63EC04F00001B751B811D8A407D00F
:10037800440E9E6F7F0E9F6F63EC04F007D06E0EE5
:1003880000019E6F7F0E9F6F63EC04F0480E000122
:100398009E6F7C0E9F6F63EC04F09EAAFED7AECFD3
:1003A800C1F00001C26BBB05BC11D8A481D0B80E46
:1003B8009E6F7E0E9F6F63EC04F0000E0001BC6F11
:1003C800000EBB6F49EC08F012000001B751B811DC
:1003D800D8A40BD0000EB86F010EB76FD10E9E6F68
:1003E8007E0E9F6F63EC04F00BD0000E0001B86F17
:1003F800000EB76F6B0E9E6F7E0E9F6F63EC04F05E
:100408000D0E0001AA6FAF0EA96FB60EE82EFED72B
:10041800A92FFCD7AA2FFAD700F049EC08F090D7FB
:10042800500E00019E6F7E0E9F6F63EC04F0000E6D
:100438000001AC6F000EAB6FACBF03D0AC5180E1D4
:1004480017D09EAAFED7AECFB5F00001B66BF90E55
:100458009E6F7F0E9F6FB5C0A0F0B6C0A1F063EC91
:1004680004F00001AB4BAC2BACBFEBD7AC5105E1B2
:10047800020EAB5DD8B064D7E4D762D749EC08F078
:100488001200030E00019E6F7F0E9F6F63EC04F055
:100498001A0E0001AA6F5E0EA96F6E0EE82EFED727
:1004A800A92FFCD7AA2FFAD700F049EC08F048D7B3
:1004B800C1C0A9F0C2C0AAF00001AA51000AD8A47C
:1004C800E0D7A951310AD8B480D7030AD8B4A8D73D
:1004D800010AD8B4D3D7D5D749EC08F049EC08F0CD
:1004E8000001B951BA11D8A407D0C70E9E6F7F0E6C
:1004F8009F6F63EC04F007D0D60E00019E6F7F0E4D
:100508009F6F63EC04F00001B751B811D8A407D06D
:10051800440E9E6F7F0E9F6F63EC04F007D06E0E43
:1005280000019E6F7F0E9F6F63EC04F0AD0E00011B
:100538009E6F7C0E9F6F63EC04F09EAAFED7AECF31
:10054800C1F00001C26BBB05BC11D8A46CD0B80EB9
:100558009E6F7E0E9F6F63EC04F0000E0001BC6F6F
:10056800000EBB6F49EC08F01200850E00019E6F6B
:100578007E0E9F6F63EC04F00F0E956E81880D0E52
:100588000001AA6FAF0EA96FB60EE82EFED7A92FED
:10059800FCD7AA2FFAD72BD0340E00019E6F7E0EFF
:1005A8009F6F63EC04F0956881980D0E0001AA6FA7
:1005B800AF0EA96FB60EE82EFED7A92FFCD7AA2F2B
:1005C800FAD715D0E40E00019E6F7F0E9F6F63EC83
:1005D80004F0956881880D0E0001AA6FAF0EA96F0F
:1005E800B60EE82EFED7A92FFCD7AA2FFAD700F00F
:1005F80075D749EC08F01200030E00019E6F7F0EBC
:100608009F6F63EC04F00D0E0001AA6FAF0EA96F87
:10061800B60EE82EFED7A92FFCD7AA2FFAD700F0DE
:1006280049EC08F05BD7C1C0A9F0C2C0AAF000012C
:10063800AA51000AD8A4E0D7A951310AD8B495D74D
:10064800030AD8B4A9D7010AD8B4BCD7070AD8B4C2
:10065800D0D7D2D749EC08F00001B951BA11D8A4C3
:1006680007D0C70E9E6F7F0E9F6F63EC04F007D014
:10067800D60E00019E6F7F0E9F6F63EC04F00001A1
:10068800B751B811D8A407D0440E9E6F7F0E9F6F44
:1006980063EC04F007D06E0E00019E6F7F0E9F6F13
:1006A80063EC04F0020E00019E6F7D0E9F6F63ECF9
:1006B80004F09EAAFED7AECFC1F00001C26BBB0505
:1006C800BC11D8A452D0B80E9E6F7E0E9F6F63ECFB
:1006D80004F0000E0001BC6F000EBB6F49EC08F07F
:1006E8001200F0B60CD0F086950E9E6F7F0E9F6FAD
:1006F80063EC04F0000E0001BA6F010E0BD0F09607
:10070800820E9E6F7F0E9F6F63EC04F0000E000157
:10071800BA6F000EB96F0D0E0001AA6FAF0EA96F68
:10072800B60EE82EFED7A92FFCD7AA2FFAD700F0CD
:1007380049EC08F091D749EC08F01200030E0001CB
:100748009E6F7F0E9F6F63EC04F00D0E0001AA6F81
:10075800AF0EA96FB60EE82EFED7A92FFCD7AA2F89
:10076800FAD700F049EC08F077D7C1C0A9F0C2C0A9
:10077800AAF00001AA51000AD8A4E0D7A951310A69
:10078800D8B4AFD7030AD8B4D6D7D8D749EC08F02D
:10079800EA0E00019E6F7E0E9F6F63EC04F0000E60
:1007A8000001AC6F000EAB6FACBF06D0AC5120E1BE
:1007B800040EAB5DD8B01CD09EAAFED7C30E0001B4
:1007C800AB25D96E000EAC21DA6EAECFDFFFFC0E82
:1007D8009E6F7F0E9F6F63EC04F00001AB4BAC2B58
:1007E800ACBFEAD7AC5104E1040EAB5DD8A0E4D7A6
:1007F800C30E966F000E976FC70E986F000E996F15
:10080800000E9B6F040E9A6F00EC07F096C0BFF0C5
:1008180097C0C0F00001BF51C011D8A439D049EC2D
:1008280008F0590E00019E6F7F0E9F6F63EC04F075
:10083800000E0001AE6F000EAD6FAEBF06D0AE5118
:1008480020E1040EAD5DD8B01CD09EAAFED7C70E1D
:100858000001AD25D96E000EAE21DA6EAECFDFFFF6
:10086800FC0E9E6F7F0E9F6F63EC04F00001AD4B92
:10087800AE2BAEBFEAD7AE5104E1040EAD5DD8A0F1
:10088800E4D79F0E9E6F7E0E9F6F63EC04F01200FC
:10089800800E00019E6F7D0E9F6F63EC04F01A0EB0
:1008A8000001AA6F5E0EA96F6E0EE82EFED7A92F63
:1008B800FCD7AA2FFAD700F049EC08F01200A00ED6
:1008C8000001A26F000EA36F82D0250EA819D8B41C
:1008D80004D0A85165EC08F07AD0000E0001A46F8E
:1008E8009EC0F6FF9FC0F7FF9E4B9F2B0800F5CFD9
:1008F800A8F0A851000AD8B41200640AD8B403D0EA
:100908000D0AD8A464D0A2C0D9FFA3C0DAFFDECFF5
:10091800A6F0DDCFA7F0020EA227000EA323A7AFF3
:1009280006D0030EA413A66DA71FD8B0A72B010EDF
:10093800A86F050EA819D8B412D0A851020DB90E87
:10094800F324F66E7B0EF420F76E0900F550A65DD1
:100958000900F550A759D8A002D0A82BEAD7A4C0FF
:100968003DF0030E3D16D8B403D02D0E65EC08F00B
:10097800A8C0A5F027D00001A551020DB90EF32497
:10098800F66E7B0EF420F76E0900F5CF98F00A009A
:10099800F5CF99F0A6C096F0A7C097F07DEC07F0C8
:1009A80096C09AF097C09BF0000E00019D6F0A0E4A
:1009B8009C6FF3EC07F000019A51300FA86FA85113
:1009C80065EC08F00001A507A529D8A4D4D79EC0D6
:1009D800F6FF9FC0F7FF00019E4B9F2B0800F5CF45
:1009E800A8F0A851D8B4120070D70F0E106E000EE0
:1009F800116E7DD0250E1618D8B404D016506BECA5
:100A080008F075D0000E126E0DC0F6FF0EC0F7FF8D
:100A18000D4A0E2A0800F5CF16F01650000AD8B471
:100A28001200640AD8B403D00D0AD8A460D010C04C
:100A3800D9FF11C0DAFFDECF14F0DDCF15F0020EBA
:100A48001026000E112215AE06D0030E1212146CD9
:100A5800151ED8B0152A010E166E050E1618D8B434
:100A680012D01650020DB90EF324F66E7B0EF42048
:100A7800F76E0900F550145C0900F5501558D8A018
:100A880002D0162AEAD712C00FF0030E0F16D8B4F8
:100A980003D02D0E6BEC08F016C013F024D01350C1
:100AA800020DB90EF324F66E7B0EF420F76E0900E2
:100AB800F5CF03F00A00F5CF04F014C001F015C01B
:100AC80002F0A7EC07F001C008F002C009F0000E20
:100AD8000B6E0A0E0A6E15EC08F00850300F166EF1
:100AE80016506BEC08F013061328D8A4D8D70DC0FD
:100AF800F6FF0EC0F7FF0D4A0E2A0800F5CF16F0D4
:100B08001650D8B4120076D749EC08F00001B95154
:100B1800BA11D8A407D0C70E9E6F7F0E9F6F63ECE3
:100B280004F007D0D60E00019E6F7F0E9F6F63EC16
:100B380004F00001B751B811D8A407D0440E9E6F35
:100B48007F0E9F6F63EC04F007D06E0E00019E6F5E
:100B58007F0E9F6F63EC04F0450E00019E6F7D0EC3
:100B68009F6F63EC04F09EAAFED7AECFC1F00001E0
:100B7800C26BBB05BC11D8A432D0B80E9E6F7E0ED6
:100B88009F6F63EC04F0000E0001BC6F000EBB6F9A
:100B980049EC08F012002F0E00019E6F7F0E9F6F28
:100BA80063EC04F0CAEC03F0B1D749EC08F012008A
:100BB800030E00019E6F7F0E9F6F63EC04F00D0E15
:100BC8000001B06FAF0EAF6FB60EE82EFED7AF2F95
:100BD800FCD7B02FFAD700F049EC08F097D7C1C07E
:100BE800AFF0C2C0B0F00001B051000AD8A4E0D7FD
:100BF800AF51310AD8B4CFD7030AD8B4D6D7D8D78B
:100C08000600FACF19F0FBCF1AF0E9CF1BF0EACFB4
:100C18001CF0E1CF1DF0E2CF1EF0D9CF1FF0DACFE4
:100C280020F0F3CF21F0F4CF22F0F6CF23F0F7CF66
:100C380024F0F8CF25F0F5CF26F046C027F047C0BE
:100C480028F048C029F049C02AF058EC08F0FC0EFA
:100C58000D6E7D0E0E6EF9EC04F0DD0E0D6E7D0E40
:100C68000E6EF9EC04F08184000E0001BC6F010ED9
:100C7800BB6F6DEC06F0B60E0D6E7D0E0E6EF9ECC8
:100C880004F0F09081942AC049F029C048F028C0A7
:100C980047F027C046F026C0F5FF25C0F8FF24C05E
:100CA800F7FF23C0F6FF22C0F4FF21C0F3FF20C0E6
:100CB800DAFF1FC0D9FF1EC0E2FF1DC0E1FF1CC044
:100CC800EAFF1BC0E9FF1AC0FBFF19C0FAFF4692F2
:100CD8001100BC0E0D6E7F0E0E6EF9EC04F0000EC6
:100CE800186E000E176E18BE06D018501EE1040EBE
:100CF800175CD8B01AD09EAAFED7C30E1724D96E97
:100D0800000E1820DA6EAECFDFFFFC0E0D6E7F0EE0
:100D18000E6EF9EC04F0174A182A18BEECD71850D2
:100D280004E1040E175CD8A0E6D7C30E016E000ECE
:100D3800026EC70E036E000E046E000E066E040EE1
:100D4800056E40EC07F001C0BFF002C0C0F0000122
:100D5800BF51C011D8A407D01A0E0D6E7F0E0E6EAB
:100D6800F9EC04F01200180E0D6E7E0E0E6EF9EC02
:100D780004F0AFD7000E306E2EAE06D02D6C2E1EAE
:100D8800D8B02E2A010E306E2CAE06D02B6C2C1E3D
:100D9800D8B02C2A010E301A000E326E000E316EB9
:100DA8002D502E10D8B41CD0010E2F6E04D0D89020
:100DB8002D362E362F2A2EAEFAD7D8903136323627
:100DC8002D502B5C2E502C58D8A005D02D502B5EC2
:100DD8002E502C5A3180D8902E322D322F2EEDD70E
:100DE8003050D8B404D0316C321ED8B0322A31C059
:100DF8002BF032C02CF0120031D096C0D9FF97C02A
:100E0800DAFFDF50D8B40CD098C0D9FF99C0DAFF08
:100E180096C0E1FF97C0E2FFDE50E618D8B419D0BB
:100E280098C0D9FF99C0DAFFDF50396E3A6A391E87
:100E38003A1E394A3A2A96C0D9FF97C0DAFFDF50DE
:100E48003B6E3B5039240001966F000E3A20976F95
:100E580012000001964B972B984B992B00019A078B
:100E6800D8A09B079A29C9E19B29D8A4C6D7000E08
:100E7800976F000E966F12002FD001C0D9FF02C0E5
:100E8800DAFFDF50D8B40CD003C0D9FF04C0DAFFB2
:100E980001C0E1FF02C0E2FFDE50E618D8B418D066
:100EA80003C0D9FF04C0DAFFDF50076E086A071EC7
:100EB800081E074A082A01C0D9FF02C0DAFFDF501E
:100EC800096E09500724016E000E0820026E1200F8
:100ED800014A022A034A042A0506D8A0060605285C
:100EE800CCE10628D8A4C9D7000E026E000E016E08
:100EF8001200000E3B6E000E3A6E000198519911D7
:100F0800D8B41CD0010E396E04D0D89098379937D0
:100F1800392A99AFFAD7D8903A363B369851965D28
:100F280099519759D8A005D09851965F9951975BD8
:100F38003A80D89099339833392EEDD73AC096F045
:100F48003BC097F01200000E066E000E056E0350AF
:100F58000410D8B41CD0010E076E04D0D890033604
:100F68000436072A04AEFAD7D89005360636035059
:100F7800015C04500258D8A005D00350015E04500B
:100F8800025A0580D89004320332072EEDD705C0E7
:100F980001F006C002F01200E20EF66E100EF76EB7
:100FA800000EF86E00EEC7F010EE04F00900F5CF61
:100FB800EEFFE550E150FAE100EEB5F0120EEE6AF0
:100FC800E806FDE100EE3EF0080EEE6AE806FDE1F7
:100FD80046904692000EF86E0001A6EF00F0000160
:100FE8009C519D11D8B418D0010E3C6E04D0D890F5
:100FF8009C379D373C2A9DAFFAD79C519A5D9D51ED
:101008009B59D8A004D09C519A5F9D519B5BD89066
:101018009D339C333C2EF1D79AC09AF09BC09BF02D
:1010280012000A500B10D8B418D0010E0C6E04D060
:10103800D8900A360B360C2A0BAEFAD70A50085C41
:101048000B500958D8A004D00A50085E0B50095A12
:10105800D8900B320A320C2EF1D708C008F009C01C
:1010680009F0120033503502F3CF37F0F4CF38F0DF
:1010780033503602F350382634503502F3503826B0
:1010880037C033F038C034F01200F40E00019E6F00
:101098007F0E9F6F63EC04F0ED0E00019E6F7F0ED4
:1010A8009F6F63EC04F01200F40E0D6E7F0E0E6E4F
:1010B800F9EC04F0ED0E0D6E7F0E0E6EF9EC04F0F7
:1010C8001200396E9EA8FED739C0ADFF1200016E1E
:0E10D8009EA8FED701C0ADFF120031323334A6
:107BB8000001000A006400E803102743757272652B
:107BC8006E742054656D70205B465D3A2025640A0A
:107BD8000D0A0D416C61726D2053797374656D0ADD
:107BE8000D2D2D2D2D2D2D2D2D2D2D2D2D2D2D2DDD
:107BF8002D2D0A0D312950617373776F72640A0D48
:107C080032295049522053656E736F720A0D332919
:107C180054656D702053656E736F720A0D3429496F
:107C28006E707574204D6574686F640A0D2D2D2D66
:107C38002D2D2D2D2D2D2D2D2D2D2D2D2D0A0D00DC
:107C48000A0D54656D7065726174757265205365AF
:107C58006E736F72204F5054494F4E530A0D31299D
:107C680020456E61626C652F44697361626C6520A2
:107C7800416C61726D0A0D32292054656D70657210
:107C88006174757265205468726573686F6C640AF4
:107C98000D33292052657475726E20746F204D65FE
:107CA8006E750A0D000A0D0A0D494E505554204FA5
:107CB8005054494F4E533A0A0D31292055736520C7
:107CC8004B65797061640A0D322920557365204B24
:107CD8006579626F6172640A0D33292055736520D6
:107CE800424F54480A0D34292052657475726E202B
:107CF800746F204D656E750A0D000A0D50495220AB
:107D080053656E736F72204F5054494F4E530A0D8E
:107D1800312920456E61626C652F44697361626C1C
:107D28006520416C61726D0A0D32292052657475A7
:107D3800726E20746F204D656E750A0D000A0D5025
:107D4800415353574F5244204F5054494F4E530AB2
:107D58000D31294368616E67652050617373776FD1
:107D680072640A0D32292052657475726E20746F20
:107D7800204D656E750A0D000A0D50617373776F9B
:107D8800726420496E76616C69642E20476F696E53
:107D980067206261636B20746F2050617373776F23
:107DA8007264204D656E752E2E2E2E0A0D000A0D5A
:107DB800507265737320416E7920427574746F6ECA
:107DC80020746F2072657475726E20746F204D6513
:107DD8006E750A0D000A0D454E5445522050415308
:107DE80053574F524420544F20434F4E54494E55F9
:107DF800450A0D000A0D0A0D0A0D414C41524D204D
:107E08005452494747455245440A0D0A0D0A0D0088
:107E18000A0D78787878787878494E56414C4944F4
:107E2800787878787878780A0D0A0D000A0D5573F5
:107E3800696E67204B6579626F6172642061732097
:107E4800496E7075740A0D00456E746572206E6512
:107E5800772074656D70207468726573686F6C64E0
:107E68000A0D000A0D54656D70657261747572654E
:107E780020416C61726D204F46460A0D000A0D556F
:107E880073696E67204B657970616420617320495E
:107E98006E7075740A0D000A0D0A0D5061737377C0
:107EA8006F7264204368616E6765640A0D0A0D008D
:107EB8000A0D52657475726E696E6720746F204D75
:107EC800656E752E2E2E0A0D000A0D54656D7065AF
:107ED80072617475726520416C61726D204F4E0A33
:107EE8000D00456E7465722043757272656E74205C
:107EF80050617373776F72643A20000A4552524F8B
:107F08005220494E56414C494420494E5055540A36
:107F18000D000A0D50415353574F52442056414CBF
:107F280049440A0D0A0D004368616E676564205074
:107F3800617373776F72640A0D0A0D0054656D7072
:107F48002053656E736F72206973204F46460A0D81
:107F580000456E746572204E6577205061737377A3
:107F68006F72643A200054656D702053656E736FAC
:107F780072206973204F4E0A0D00416C61726D20AA
:107F880044697361626C65640A0A0D0D00416C6195
:107F9800726D20456E61626C65640A0A0D0D000AF7
:107FA8000D50617373776F7264205345540A0D0046
:107FB8005345542050415353574F52443A090041B6
:107FC8006C61726D206973204F46460A0D00416C42
:107FD80061726D206973204F4E0A0D000A0D424FE1
:107FE80054480A0D001B5B303B3048001B5B324A8B
:077FF800002564002A0000CF
:020000040020DA
:08000000FFFFFFFFFFFFFFFF00
:020000040030CA
:0E000000FF02191EFF8181FF0FC00FE00F40AD
:00000001FF
