:0600000000F01BEF0DF003
:1006000000F44A489595C7C1DC45DC6DC3B333405F
:100610003401489DB04500DA4200803FC0202020D0
:1006200020202020200080202020202020202000AA
:09063000333228010C0600000021
:10063A00FFFFC00EC76E200EC66E210EC26EC00E20
:10064A00C16E190E4C6E5D0EFFFFE82EFDD74C2EC3
:10065A00FBD7C284190E4C6E5D0EFFFFE82EFDD744
:10066A004C2EFBD7FFFFC2B4FDD7C3CF7BF07C6A09
:10067A00C4CF79F07A6A79507A6E796A79507B2494
:10068A004C6E7A507C204D6E4CC067F04DC068F0BD
:10069A00696A6A6A67C001F068C002F069C003F05B
:1006AA006AC004F0620E056E000E066E000E076E3A
:1006BA00000E086EC9EC0CF001C00DF002C00EF07D
:1006CA0003C00FF004C010F0FF0E116E030E126E7D
:1006DA00000E136E000E146E3BEC0AF0020E0D248F
:1006EA00636E000E0E20646E000E0F20656E000E03
:1006FA001020666E63C0B2F064C0B3F065C0B4F097
:10070A0066C0B5F063C00DF064C00EF065C00FF0AE
:10071A0066C010F0640E116E000E126E000E136E9B
:10072A00000E146E3BEC0AF00DC057F00EC058F0E4
:10073A000FC059F010C05AF057C001F058C002F06B
:10074A0059C003F05AC004F0640E056E000E066E1E
:10075A00000E076E000E086EC9EC0CF00150635EC5
:10076A000250645A0350655A0450665A63C00DF029
:10077A0064C00EF065C00FF066C010F00A0E116E6C
:10078A00000E126E000E136E000E146E3BEC0AF091
:10079A000DC0A2F00EC0A3F00FC0A4F010C0A5F0C7
:1007AA0063C001F064C002F065C003F066C004F0E3
:1007BA000A0E056E000E066E000E076E000E086E1B
:1007CA000DEC0BF001C09EF002C09FF003C0A0F038
:1007DA0004C0A1F0300E5726000E582259225A2280
:1007EA00300E0001A227000EA323A423A523300E56
:1007FA009E27000E9F23A023A123460E8B6F520E25
:10080A008C6F450E8D6F510E8E6F57C090F0A2C03F
:10081A0091F09EC092F08E0EC16E8A0E016E000E8D
:10082A00026E03EC0CF0190E4C6E5D0EFFFFE82E03
:10083A00FDD74C2EFBD7390EC26EC20EC16E190EF1
:10084A004C6E5D0EFFFFE82EFDD74C2EFBD7C284FF
:10085A00190E4C6E5D0EFFFFE82EFDD74C2EFBD70E
:10086A00FFFFC2B4FDD7C3CF77F0786AC4CF75F063
:10087A00766A7550766E756A755077244C6E765026
:10088A0078204D6E4CC0AEF04DC0AFF00001B06B99
:10089A00B16BAEC001F0AFC002F0B0C003F0B1C09E
:1008AA0004F0320E056E000E066E000E076E000E84
:1008BA00086EC9EC0CF001C00DF002C00EF003C0C6
:1008CA000FF004C010F0FF0E116E030E126E000E30
:1008DA00136E000E146E3BEC0AF00DC05BF00EC0F6
:1008EA005CF00FC05DF010C05EF05BC05FF05CC0F2
:1008FA0060F05DC061F05EC062F05BC00DF05CC08C
:10090A000EF05DC00FF05EC010F00A0E116E000E00
:10091A00126E000E136E000E146E3BEC0AF00DC040
:10092A00AAF00EC0ABF00FC0ACF010C0ADF05BC0C7
:10093A0001F05CC002F05DC003F05EC004F00A0E74
:10094A00056E000E066E000E076E000E086E0DECA8
:10095A000BF001C0A6F002C0A7F003C0A8F004C0C3
:10096A00A9F0300E0001AA27000EAB23AC23AD2359
:10097A00300EA627000EA723A823A923410E956FA0
:10098A004D0E966F500E976FAAC09AF02E0E9B6F5F
:10099A00A6C09CF08E0EC16E940E016E000E026E01
:1009AA0003EC0CF05FC00DF060C00EF061C00FF0F8
:1009BA0062C010F00A0E116E000E126E000E136E57
:1009CA00000E146E3BEC0AF00DC05FF00EC060F032
:1009DA000FC061F010C062F0000E6B6E000E6C6EFC
:1009EA00000E6D6E6BC001F06CC002F06DC003F0BA
:1009FA00000E046E800E056E3F0E066E6DEC0BF057
:100A0A00FFFFD8B0C9D08290828A210E7D6E7DC048
:100A1A00C9FFFFFFC7A0FDD76BC027F06CC028F045
:100A2A006DC029F0B2C010F0B3C011F0B4C012F01A
:100A3A00B5C013F089EC0CF010C024F011C025F0F9
:100A4A0012C026F0EFEC07F024C04EF025C04FF09C
:100A5A0026C050F0100E276EC90E286E400E296E61
:100A6A004EC024F04FC025F050C026F0EFEC07F03E
:100A7A0024C051F025C052F026C053F051C03FF0B7
:100A8A0052C040F053C041F0D4EC05F03FC054F0DE
:100A9A0040C055F041C056F05FC010F060C011F080
:100AAA0061C012F062C013F089EC0CF010C024F09F
:100ABA0011C025F012C026F054C027F055C028F006
:100ACA0056C029F0EFEC07F024C06EF025C06FF095
:100ADA0026C070F0000E186E200E196E410E1A6EA6
:100AEA00000E0C6EA00E0D6E400E0E6E6EC009F05A
:100AFA006FC00AF070C00BF007EC07F009C015F0E0
:100B0A000AC016F00BC017F0C8EC09F015C024F0A3
:100B1A0016C025F017C026F0000E276E7F0E286E2D
:100B2A00430E296EEFEC07F024C06EF025C06FF07B
:100B3A0026C070F06EC001F06FC002F070C003F002
:100B4A00E1EC08F00150C96EFFFFC7A0FDD7828013
:100B5A00829A6BC009F06CC00AF06DC00BF0120EDD
:100B6A000C6E830E0D6E3A0E0E6E07EC07F009C07E
:100B7A006BF00AC06CF00BC06DF06BC001F06CC07A
:100B8A0002F06DC003F0000E046E800E056E3F0E7B
:100B9A00066E6DEC0BF034D7FFFF1200FFFFFFFF6C
:100BAA00000E4B6E41AE10D03FC001F040C002F0C3
:100BBA0041C003F07EEC0DF001C03FF002C040F0EE
:100BCA0003C041F0010E4B6EFFFF3FC024F040C04E
:100BDA0025F041C026F0FA0E276E220E286E3E0E30
:100BEA00296EEFEC07F024C03FF025C040F026C084
:100BFA0041F03FC022F040C023F041C024F03FC082
:100C0A001AF040C01BF041C01CF06BEC08F01AC08F
:100C1A0025F01BC026F01CC027F0F8EC0CF022C00F
:100C2A003FF023C040F024C041F03FC024F040C050
:100C3A0025F041C026F0000E276E800E286E400E69
:100C4A00296EEFEC07F024C03FF025C040F026C023
:100C5A0041F0000E016E000E026E400E036E3FC0A0
:100C6A0004F040C005F041C006F06DEC0BF0D8B0BE
:100C7A001DD03FC022F040C023F041C024F0000E36
:100C8A00256E000E266E400E276EF8EC0CF022C080
:100C9A003FF023C040F024C041F04B50D8A402D00A
:100CAA00010E02D0FFFF000EFFFF4B6EFFFF000E8A
:100CBA00016E800E026E3F0E036E3FC004F040C00C
:100CCA0005F041C006F06DEC0BF0D8B01CD03FC067
:100CDA0001F040C002F041C003F07EEC0DF001C00B
:100CEA0009F002C00AF003C00BF0000E0C6E000EF1
:100CFA000D6E400E0E6E07EC07F009C03FF00AC0F9
:100D0A0040F00BC041F0FFFF3FC024F040C025F087
:100D1A0041C026F03FC027F040C028F041C029F06A
:100D2A00EFEC07F024C048F025C049F026C04AF08D
:100D3A0048C033F049C034F04AC035F0100E366E60
:100D4A00060E376E000E396E030E386E55EC09F03A
:100D5A0033C042F034C043F035C044F042C018F00A
:100D6A0043C019F044C01AF0000E396E040E386EF2
:100D7A00010E366E060E376E48C033F049C034F0A5
:100D8A004AC035F055EC09F033C015F034C016F0FE
:100D9A0035C017F0C8EC09F015C045F016C046F08A
:100DAA0017C047F03FC024F040C025F041C026F0EC
:100DBA0045C027F046C028F047C029F0EFEC07F0FD
:100DCA0024C03FF025C040F026C041F04B50D8B4B3
:100DDA000FD03FC001F040C002F041C003F07EECEA
:100DEA000DF001C03FF002C040F003C041F007D04F
:100DFA00FFFF3FC03FF040C040F041C041F0FFFF5D
:100E0A001200FFFFFFFF0BC00FF0106A116A0A34CD
:100E1A000F3601E310800F50146E0EC00FF0106AE7
:100E2A00116A0D340F3601E310800F50136E1450FF
:100E3A00D8B40BD01350145CD8B00FD0145000089B
:100E4A0013240F6E180E0F6408D0FFFF0CC009F0B0
:100E5A000DC00AF00EC00BF0BAD0FFFF1350D8B481
:100E6A000BD01450135CD8B00FD0135000081424C0
:100E7A000F6E180E0F6408D0FFFF09C009F00AC0F0
:100E8A000AF00BC00BF0A3D0FFFF060E126E0BBECA
:100E9A00128E0EBE128C0A8EFF0E0916FF0E0A164D
:100EAA00000E0B160D8EFF0E0C16FF0E0D16000E01
:100EBA000E161350145CD8B01ED0FFFFD8900C3613
:100ECA000D360E36130614501318D8B40ED0120667
:100EDA0012C00FF0070E0F16D8B407D0EED7FFFFD7
:100EEA00D8900B320A320932142AFFFF1350141811
:100EFA00D8B423D0F4D7FFFF1450135CD8B01DD058
:100F0A00FFFFD89009360A360B3614061450131808
:100F1A00D8B40ED0120612C00FF0070E0F16D8B4AE
:100F2A0007D0EED7FFFFD8900E320D320C32132ABB
:100F3A00FFFF13501418D8A4F5D7FFFF12AE0CD038
:100F4A00FF0E091AFF0E0A1AFF0E0B1A010E0926C6
:100F5A00000E0A22000E0B22FFFF12AC0CD0FF0E6D
:100F6A000C1AFF0E0D1AFF0E0E1A010E0C26000E99
:100F7A000D22000E0E22FFFF000E126E09500C26E3
:100F8A000A500D220B500E220EAE0ED0FF0E0C1A76
:100F9A00FF0E0D1AFF0E0E1A010E0C26000E0D2260
:100FAA00000E0E22010E126EFFFF0CC001F00DC0E2
:100FBA0002F00EC003F014C004F012C005F0ABEC4E
:100FCA000AF001C009F002C00AF003C00BF0FFFFEB
:100FDA001200FFFFFFFF26C02AF02B6A2C6A253475
:100FEA002A3601E32B802A502D6E2D50D8B40DD00D
:100FFA0029C02AF02B6A2C6A28342A3601E32B806E
:10100A002A50326E3250D8A408D0FFFF000E246E48
:10101A00000E256E000E266E56D0FFFF32507B0F53
:10102A002D2626C032F02950321A800E3216258E0D
:10103A00288EFF0E2716FF0E2816000E2916000E00
:10104A002E6E000E2F6E000E306E070E316EFFFFF1
:10105A0024A006D027502E2628502F22295030228D
:10106A00FFFFD890263225322432D89027362836E8
:10107A002936312EECD7090E316EFFFF24A006D097
:10108A0027502E2628502F2229503022FFFFD89091
:10109A00263225322432D89030322F322E32312E57
:1010AA00ECD72EC001F02FC002F030C003F02DC0E3
:1010BA0004F032C005F0ABEC0AF001C024F002C023
:1010CA0025F003C026F0FFFF1200FFFFFFFF1AC042
:1010DA0001F01BC002F01CC003F0200E046E000ECB
:1010EA00056E47EC0CF021AE11D01CAE06D0000EF6
:1010FA001A6E800E1B6EBF0E06D0FFFF000E1A6E10
:10110A00000E1B6E000EFFFF1C6E53D0FFFF215016
:10111A0004E1150E205CD8A007D01AC01AF01BC033
:10112A001BF01CC01CF045D0FFFF1AC001F01BC009
:10113A0002F01CC003F0E1EC08F001C010F002C09C
:10114A0011F003C012F004C013F089EC0CF010C0C7
:10115A001DF011C01EF012C01FF01AC001F01BC012
:10116A0002F01CC003F01DC004F01EC005F01FC031
:10117A0006F06DEC0BF0D8B015D01DC009F01EC0FA
:10118A000AF01FC00BF0000E0C6E800E0D6EBF0E23
:10119A000E6E07EC07F009C01AF00AC01BF00BC06C
:1011AA001CF007D0FFFF1DC01AF01EC01BF01FC0A5
:1011BA001CF0FFFF1200FFFFFFFF03C005F0066AE5
:1011CA00076A0234053601E3068005500F6E0F5098
:1011DA00D8B439D0170E056E01C006F002C007F068
:1011EA0003C008F00528096E05D0FFFFD890083221
:1011FA0007320632FFFF092EF8D706500A6E028E12
:10120A00FF0E0116FF0E0216000E031601500B6E9A
:10121A0002500C6E03500D6E0E6A8E0E0F5E0FAEEC
:10122A000ED00F50800A8F0FD8A00DD0FFFFD89094
:10123A000E320D320C320B320F3EF8D719D0FFFFA7
:10124A00170E0F6411D0FFFF000E016E000E026E22
:10125A00000E036E000E046E20D0FFFFD8900B36EE
:10126A000C360D360E360F06FFFF0F50D8A4F5D7F1
:10127A00FFFF0A50D8B408D00E1E0D1E0C1E0B6CB0
:10128A00000E0C220D220E22FFFF0BC001F00CC033
:10129A0002F00DC003F00EC004F0FFFF1200FFFFC2
:1012AA00FFFF38C001F039C002F0000E046E030ED1
:1012BA00036E69EC0DF036C03AF037C03BF00150CE
:1012CA003A2602503B223AC0F6FF3BC0F7FF09001C
:1012DA00FFFFF5CF3CF00900FFFFF5CF3DF00A0014
:1012EA00FFFFF5CF3EF042D0FFFF3CC027F03DC0E4
:1012FA0028F03EC029F033C024F034C025F035C0B0
:10130A0026F0EFEC07F024C009F025C00AF026C049
:10131A000BF0000E046E030E036E3806D8A03906D1
:10132A0038C001F039C002F069EC0DF036C03AF06D
:10133A0037C03BF001503A2602503B223AC0F6FF32
:10134A003BC0F7FF0900FFFFF5CF0CF00900FFFFD4
:10135A00F5CF0DF00A00FFFFF5CF0EF007EC07F00E
:10136A0009C03CF00AC03DF00BC03EF0FFFF385008
:10137A003910D8A4B9D73CC033F03DC034F03EC0D0
:10138A0035F01200FFFFFFFF17C01BF01C6A1D6A31
:10139A0016341B3601E31C801B50226E2250D8B42F
:1013AA000DD01AC01BF01C6A1D6A19341B3601E3E2
:1013BA001C801B50236E2350D8A408D0FFFF000EB8
:1013CA00156E000E166E000E176E4DD0FFFF000E42
:1013DA001F6E000E206E000E216E2350890F225EB2
:1013EA0017C023F01A50231A800E2316168EFF0EEA
:1013FA001516FF0E1616000E1716198EFF0E181662
:10140A00FF0E1916000E1A16180E1E6EFFFFD89040
:10141A001F36203621361850155C195016581A50A6
:10142A001758D8A007D01850155E1950165A1A50D6
:10143A00175A1F80FFFFD8901536163617361E2EFC
:10144A00E5D71FC001F020C002F021C003F022C07E
:10145A0004F023C005F0ABEC0AF001C015F002C09D
:10146A0016F003C017F0FFFF1200FFFFFFFF000E88
:10147A00166E14AE0AD0141E131E121E116C000E24
:10148A00122213221422010E166EFFFF10AE0AD08A
:10149A00101E0F1E0E1E0D6C000E0E220F221022A1
:1014AA00010E161AFFFF000E176E000E186E000EC0
:1014BA00196E000E1A6E1150121013101410D8B4AF
:1014CA002ED0010E156E07D0FFFFD89011361236B6
:1014DA0013361436152AFFFF14AEF6D7FFFFD8903D
:1014EA001736183619361A3611500D5C12500E5826
:1014FA0013500F5814501058D8A009D011500D5E2F
:10150A0012500E5A13500F5A1450105A1780FFFFD8
:10151A00D8901432133212321132152EDFD7FFFF50
:10152A001650D8B408D01A1E191E181E176C000EB1
:10153A00182219221A22FFFF17C00DF018C00EF048
:10154A0019C00FF01AC010F01200FFFFFFFF04507D
:10155A00D8B405D0015002100310D8A40ED0FFFF52
:10156A00000E016E000E026E000E036E4ED0FFFFDB
:10157A00042AD890033202320132FFFF000E01140E
:10158A00066E000E0214076EFE0E0314086E065055
:10159A0007100810D8B40DD0EAD7FFFF042A010EAD
:1015AA000126000E0222000E0322D89003320232D4
:1015BA000132FFFF000E0114066E000E0214076EC0
:1015CA00FF0E0314086E065007100810D8B407D08F
:1015DA00E4D7FFFF0406D890013602360336FFFF30
:1015EA0002BE03D0020E0460F4D7FFFF04A0029EDD
:1015FA00D8900432045003120550D8A4038E01C0B7
:10160A0001F002C002F003C003F0FFFF1200FFFF67
:10161A00FFFF000E0A6E04AE0AD0041E031E021E4D
:10162A00016C000E022203220422010E0A6EFFFF41
:10163A0008AE08D0081E071E061E056C000E0622FC
:10164A0007220822FFFF0550061007100810D8B419
:10165A0028D0010E096E07D0FFFFD890053606364E
:10166A0007360836092AFFFF08AEF6D7FFFF0550EE
:10167A00015C065002580750035808500458D8A075
:10168A0008D00550015E0650025A0750035A085006
:10169A00045AFFFFD8900832073206320532092E63
:1016AA00E5D7FFFF0A50D8B408D0041E031E021E55
:1016BA00016C000E022203220422FFFF01C001F086
:1016CA0002C002F003C003F004C004F01200FFFFDE
:1016DA00FFFF03AE16D001C007F002C008F003C036
:1016EA0009F0071E081E091E072A000E08220922F1
:1016FA00000E0724016E000E0820026E800E0920DB
:10170A00036EFFFF06AE16D004C007F005C008F04E
:10171A0006C009F0071E081E091E072A000E082225
:10172A000922000E0724046E000E0820056E800EA2
:10173A000920066EFFFF000E011A000E021A800E23
:10174A00031A000E041A000E051A800E061A045017
:10175A00015C0550025806500358D8B002D0D89000
:10176A0002D0FFFFD880FFFF1200FFFFFFFF010E2C
:10177A00026EF40E016EA80EFFFFE82EFDD7012EB1
:10178A00FBD7022EF9D700D08490300E036E060ED6
:10179A00046E26D0FFFF03C0F6FF04C0F7FF08005F
:1017AA00FFFFF5CF05F0848205C083FF8492190EEE
:1017BA00016E5D0EFFFFE82EFDD7012EFBD7053A1D
:1017CA00F00E0516848205C083FF8492190E016EFD
:1017DA005D0EFFFFE82EFDD7012EFBD7034A042A30
:1017EA00FFFF03C0F6FF04C0F7FF0800FFFFF55034
:1017FA000009D8B41200FFFFCDD7FFFFFFFF849086
:10180A0029D0FFFF01C0F6FF02C0F7FFF86A050EF4
:10181A00F76404D00800FFFFF55005D0F6CFD9FFD2
:10182A00F7CFDAFFDF50046E848204C083FF84920C
:10183A00043AF00E0416848204C083FF8492190EBF
:10184A00036E5D0EFFFFE82EFDD7032EFBD78480C3
:10185A00014A022AFFFF01C0F6FF02C0F7FFF86A39
:10186A00050EF76404D00800FFFFF55005D0F6CF47
:10187A00D9FFF7CFDAFFDF500009D8B41200FFFF13
:10188A00C0D7FFFFFFFF015002100310D8A409D0F0
:10189A0004C0D9FF05C0DAFF000EDE6E000EDD6E51
:1018AA0030D0FFFF03507F0B066E076AD8900636CA
:1018BA00073604C0D9FF05C0DAFF06C0DEFF07C03D
:1018CA00DDFF02AE03D0066A062A02D0FFFF066ACF
:1018DA00FFFF065004C0D9FF05C0DAFFDE12000E72
:1018EA00DD1204C0D9FF05C0DAFF820EDE26FF0E24
:1018FA00DD2203800382038403860388038A039C10
:10190A00029EFFFF1200FFFFFFFF000E196E8E0EF0
:10191A00186E13AE12D0131E121E111E106C000E7A
:10192A00112212221322010E196E07D0FFFFD8903E
:10193A001332123211321032182AFFFF000E10141D
:10194A00146E000E1114156E000E1214166EFF0E90
:10195A001314176E1450151016101710D8A4E6D7C2
:10196A0010C001F011C002F012C003F018C004F058
:10197A0019C005F0ABEC0AF001C010F002C011F07A
:10198A0003C012F01200FFFFFFFF000E096E000EE7
:10199A000A6E000E0B6E000E0C6EFFFF01A008D03F
:1019AA000550092606500A2207500B2208500C221D
:1019BA00FFFFD8900536063607360836D890043227
:1019CA000332023201320150021003100410D8A46B
:1019DA00E4D709C001F00AC002F00BC003F00CC042
:1019EA0004F01200FFFFFFFF255026102710D8B47D
:1019FA0006D0000E251A000E261A800E271AFFFF9F
:101A0A0022C009F023C00AF024C00BF025C00CF054
:101A1A0026C00DF027C00EF007EC07F009C022F02F
:101A2A000AC023F00BC024F01200FFFF260EF66E48
:101A3A001B0EF76E000EF86E00EE80F010EE1EF030
:101A4A000900F5CFEEFFE550E150FAE100EE9EF015
:101A5A00180EEE6AE806FDE100EE57F0270EEE6A70
:101A6A00E806FDE1000EF86E00013CEF0DF0FFFF05
:101A7A0053EC0DF0260E016E060E026E03EC0CF00E
:101A8A001C0E016E060E026E03EC0CF09684928A0E
:101A9A00949A9490FFFF1DEC03F0FCD7FFFF8E0E83
:101AAA00C16EE10E926EDC0E936ED00E946E0F0E26
:101ABA00956E000E966E100E806E809680948092BF
:101ACA00BBEC0BF01200FFFFFFFF01500302F3CF44
:101ADA0005F0F4CF06F001500402F3500626025036
:101AEA000302F350062605C001F006C002F01200F8
:101AFA00FFFFFFFF015002100310D8B406D0000EFA
:101B0A00011A000E021A800E031AFFFF01C001F02B
:101B1A0002C002F003C003F01200FFFF80497420E4
:101B2A00576F726B7300C0202020202020202000D5
:0C1B3A0080202020202020202000FFFF21
:020000040020DA
:08000000FFFFFFFFFFFFFFFF00
:020000040030CA
:0E000000FF220D0EFF0181FF0FC00FE00F4029
:00000001FF
